:020000040800F2
:10000000C00E0020D9010008E1010008E30100084A
:10001000E5010008E7010008E90100080000000010
:10002000000000000000000000000000EB010008DC
:10003000ED01000800000000EF010008C9200008E1
:10004000F3010008F3010008F3010008F3010008C0
:10005000F3010008F3010008F3010008F3010008B0
:10006000F3010008F3010008F3010008F3010008A0
:10007000D5060008F3010008F3010008F3010008A9
:10008000F3010008F3010008F3010008F301000880
:10009000F3010008F3010008F3010008F301000870
:1000A000F3010008F301000865210008F3010008CE
:1000B000F3010008A1210008F3010008F301000882
:1000C000F3010008F3010008F3010008591E0008BD
:1000D000F301000845230008F3010008F3010008BC
:1000E000F5070008F3010008F3010008F301000818
:1000F000F301000800F002F800F05EF80AA090E8B2
:10010000000C82448344AAF10107DA4501D100F0D2
:1001100053F8AFF2090EBAE80F0013F0010F18BF41
:10012000FB1A43F001031847E050000000510000A3
:100130000A444FF0000C10F8013B13F0070408BF0D
:1001400010F8014B1D1108BF10F8015B641E05D0AB
:1001500010F8016B641E01F8016BF9D113F0080F60
:100160001EBF10F8014BAD1C0C1B09D16D1E58BFF2
:1001700001F801CBFAD505E014F8016B01F8016B29
:100180006D1EF9D59142D6D370470000002300249C
:1001900000250026103A28BF78C1FBD8520728BF97
:1001A00030C148BF0B6070471FB59DE8030000F0E9
:1001B00081F81FBD10B510BD00F000F91146FFF722
:1001C000F3FF02F035FE00F01EF903B4FFF7F2FF73
:1001D00003BC00F04BF9000009488047094800477C
:1001E000FEE7FEE7FEE7FEE7FEE7FEE7FEE7FEE7E7
:1001F000FEE7FEE704480549054A064B7047000044
:10020000FD200008F5000008C0080020C00E0020F6
:10021000C00A0020C00A002070B5064600F02EF883
:10022000056806F10B0020F00704B4429CBF0020D3
:1002300070BD2B466A68BAB11068A04210D304F1B1
:10024000080188423CBF5068586007D351681019B4
:1002500041601168091B016058601460101D70BD79
:1002600013465268002AE7D12146284600F00EF8CE
:100270000028DED170BD7047704770470048704756
:1002800068080020704770477047704738B50446CB
:100290000A4600206946AFF30080002808BF38BD39
:1002A00002460099204600F067F8012038BD012081
:1002B00000F07CB8F8B5AFF30080054600200C468E
:1002C000102000BF0646A819A0420DD93246694643
:1002D0000020AFF30080070008BF00F067F8009827
:1002E000A04218BF0546C419FFF7C8FF05600746BE
:1002F000F01D20F007004619284600F00AF8B44225
:1003000008BFF8BDA21B31463868BDE8F84000F0D0
:1003100033B800210160C0E9011070471020704718
:1003200070B50446051FFFF7A9FF0068002C14BF35
:10033000446870BD002C18BFAC423CBF20466468C6
:10034000F8D301680A18AA4218BF456003D12A6889
:1003500005461144016028684119A1421CBF6C6028
:1003600070BD6168696021680844286070BD000044
:100370000048704760080020034640688C4600280B
:1003800018BF88423CBF03464068F8D31868184439
:10039000884207D00CF1030020F00700001D411A2D
:1003A000521A0146081D0A60FFF7BABF10B500F0E7
:1003B00035F8BDE8104000F02CB870477546FFF7DF
:1003C000D7FFAE4605006946534620F00700854634
:1003D00018B020B5FFF70EFFBDE820404FF0000633
:1003E0004FF000074FF000084FF0000B21F007011D
:1003F000AC46ACE8C009ACE8C009ACE8C009ACE860
:10040000C0098D4670470446AFF300802046FFF7D1
:10041000DCFE002801D000F029B8704710B5012893
:1004200005D0002103A000F027F8012010BD09A18C
:10043000F8E7000053494752544D454D3A204F7557
:1004400074206F662068656170206D656D6F7279CC
:10045000000000003A2048656170206D656D6F7284
:100460007920636F72727570746564000149182099
:10047000ABBEFEE72600020070B505460C460A201A
:1004800000E06D1C00F011F835B128780028F8D193
:1004900002E0641C00F009F814B120780028F8D1BB
:1004A000BDE870400A20AFF3008008B569468DF8BA
:1004B00000000320ABBE08BD0F48006840F00200FA
:1004C0000D4908600D48006840F000600B49086065
:1004D000081D008820F40050091D0880081D0068D0
:1004E00040F04060091D08600448406A40F4401133
:1004F00002484162704700001C380240000402407C
:100500001E48006840F004001C4908601C48008830
:1005100040F2F23188431A4908800846008840F0CA
:100520004400088016481830008840F070001449D4
:100530001831088012482030008840F0030010492C
:100540002031088063200E49283108800020091DD1
:1005500008600B49343108600949243108600848B3
:100560001430008840F00100054914310880081F4C
:10057000008820F00100091F0880704720380240E1
:100580000008014009480A4908600A4848600A48CA
:1005900088600A490648C160094805490861094957
:1005A00003484161FF200249487670474E00002011
:1005B000CC010020580000205E000020BA0000207E
:1005C000E800002022010020002011490870114994
:1005D00008601049083108600E4910310860012098
:1005E0000D49086000200C49083908600948243882
:1005F000008820F0010007492439088006482C387B
:10060000008820F0010004492C3908807047000060
:1006100026000020240801402C04004000B50246BA
:1006200000F008FA0A49086000200A4908600A49EF
:1006300008600A4908600A4908700A48006800888A
:100640000949086012B101200849087000BD000086
:100650005401002048010020500100204C010020DE
:100660005C01002060010020580100205D01002095
:100670000848006840F00100064908600648006824
:1006800040F44070044908600846806840F44070B7
:10069000886070471C380240000002400B48006828
:1006A00040F00050094908600948006820F0060041
:1006B00007490860002006491031086004480068B6
:1006C00040F00100024908607047000024380240F1
:1006D000007400400D48006800F02000A8B10B48ED
:1006E000406840F01000094948600020084908703F
:1006F0004FF08040008A20F001004FF080410882D6
:100700000846008820F00100088070470060024021
:100710009001002010B502460B460E48141872B620
:1007200000F054F80C48006840F480700A490860F2
:10073000236000BF08481430006800F00100002862
:10074000F8D10548006840F001000349086062B62E
:1007500010BD000000000808043C024010B504462B
:10076000184A12F83420174B03EBC4035B7842EAB3
:100770000312144B03EBC4039B7842EA0352114B60
:1007800003EBC403DB7842EA03220E4B03EBC40302
:100790001B7942EA03320B4B03EBC4035B7942EA59
:1007A0000342084B03EBC4039B7942EA0362054B07
:1007B00003EBC403DB7942EA0371034A105DFFF7E0
:1007C000A9FF10BD400800203F010020064807494E
:1007D00008600748086000BF04480838006800F057
:1007E00001000028F8D17047EFCDAB890C3C0240E6
:1007F0000504030210B51B48006800F400500028EF
:100800002FD000220121104600F072FEC4B204F085
:100810001C000C2802D114A001F010FE04F01C00F2
:10082000102818D101F02AF801F084F800F05AFFDE
:10083000114890F8410018B10021084601F0FCF879
:100840000D4890F8420020B900F0AAF90BA001F081
:10085000F5FD01F03BF80348006840F40050014901
:10086000086010BD140401405061636B657420730F
:10087000656E742E0A0000000E040020496E746537
:10088000727072617465732061733A0A000000002F
:100890002DE9F0430546DDE90767099C0A2D04D0E0
:1008A0000B2D0ED00C2D24D117E0DFF878C1DCF829
:1008B00000C04CF0010CDFF86C81C8F800C05A4849
:1008C00017E0DFF860C1DCF800C04CF0020CDFF884
:1008D0005481C8F800C055480BE0DFF848C1DCF887
:1008E00000C04CF0040CDFF83C81C8F800C0504850
:1008F00000BF00BFD0F800C04FEA41094FF0030825
:1009000008FA09F82CEA080CC0F800C0D0F80CC0AE
:100910004FEA41094FF0030808FA09F82CEA080CDD
:10092000C0F80CC0D0F800C04FEA410802FA08F83D
:100930004CEA080CC0F800C0012A03D0022A01D0FA
:10094000002A6CD1D0F80CC04FEA410803FA08F82D
:100950004CEA080CC0F80CC0012A01D0022A5ED172
:10096000B0F804C04FEA41094FF0010808FA09F84D
:100970002CEA080CA0F804C0D0F808C04FEA4109DE
:100980004FF0030808FA09F82CEA080CC0F808C070
:10099000B0F804C006FA01F84CEA080CA0F804C04C
:1009A000D0F808C04FEA410807FA08F84CEA080CEA
:1009B000C0F808C0022A32D1082916DAD0F820C0BF
:1009C0004FEA81094FF00F0808FA09F82CEA080CE1
:1009D000C0F820C0D0F820C04FEA810804FA08F817
:1009E0004CEA080CC0F820C019E0D0F824C0A1F1EE
:1009F00008084FEA88094FF00F0808FA09F82CEAAE
:100A0000080CC0F824C0D0F824C0A1F108084FEAAF
:100A1000880804FA08F84CEA080CC0F824C0BDE8BD
:100A2000F08300001C380240000002400004024035
:100A3000000802400748008A00F001000549098AC1
:100A400001F0020108430349098A01F00401084347
:100A500070470000000002400648006838B10548B1
:100A60000068401E03490860034800687047002082
:100A7000FCE700004C010020480100200EB51248A0
:100A8000006840F0010010490860002000900190CB
:100A900003460246014602900A20FFF7F9FE0020B5
:100AA0000090019003460246012102900A20FFF7C0
:100AB000EFFE0020009001900346024602210290C2
:100AC0000A20FFF7E5FE0EBD1C38024000B5FFF717
:100AD000B1FF034620480068984203D00020FFF78A
:100AE0009DFD00BD13B11D48007820B113B9002051
:100AF0001A490870F5E71A480068401C1849086050
:100B0000184803600846006817490968884220D3DE
:100B100016480068401C15490860154800681549CA
:100B200008600846016814480078401C31F810003D
:100B300020B111480078401C0F4908700D4800682A
:100B40000D49097830F81100074909680844064939
:100B5000086000BFC5E70000540100205D010020CF
:100B60005001002048010020580100204C010020C5
:100B700064010020600100205C010020F0B5002429
:100B80001D0245EA024545EA01040026451E034FC1
:100B900047F825603E4646F82540F0BD9403002006
:100BA00010B5674800784F2849D004DC1F2872D060
:100BB0002F2839D104E05F286ED06F28F9D134E0B6
:100BC0006048007804282FDA5D4890F83E005E49BE
:100BD000C979884228D05A4890F83E105A48C07BBC
:100BE000814221D0564890F83E105748C07D81423E
:100BF0001AD0534890F83E105348C07F814213D01A
:100C00005048007800F0AEF84F484E4A127800EB9A
:100C1000C2004178052001F0EBFE01F00BFE4948CF
:100C20000078401C4749087088E0052001F01CFD51
:100C300001F09EFC45480068454908607EE001F0EF
:100C400067FC3F4890F83E003F49C97988420AD185
:100C5000404800683E49086000231A4619460120B2
:100C600001F09CFE24E0364890F83E103648C07BE8
:100C7000814204D1384800683549086018E030489E
:100C800090F83E103048C07D814206D1334800685C
:100C90002F4908600CE00CE020E0294890F83E1055
:100CA0002948C07F814203D12D4800682849086047
:100CB00044E0234991F83E10491EC8B200F052F8B2
:100CC0001F4890F83E00401E1F4A02EBC0004178CA
:100CD000052001F08DFE01F0ADFD2FE0184890F8E1
:100CE0003E001949C979884214D0154890F83E1041
:100CF0001548C07B81420DD0114890F83E10124833
:100D0000C07D814206D00E4890F83E100E48C07F4C
:100D1000814212D100231A461946052001F03EFEF9
:100D200001F088FD07490978491EC8B200F064F84F
:100D300004480078401E0349087000BF00BF10BD82
:100D40000E0400209401002040080020980100209B
:100D5000C00100209C010020A0010020A40100206F
:100D6000A801002010B50446214890F83E00214912
:100D700001EBC401C8711E48407800F00F001D4906
:100D800001F834001A48407800F0F000001101EB3F
:100D9000C40148701648807800F00F00154901EB37
:100DA000C401C8701248807800F0F00000111149A9
:100DB00001EBC40108710E48C07800F00F000D4926
:100DC00001EBC40148710A48C07800F0F00000113E
:100DD000084901EBC40188700548007900F00F0054
:100DE000044901EBC40188712046FFF7B7FC10BD30
:100DF0000E0400204008002010B5044600201149D0
:100E000001EBC401C8710F4901F8340001EBC401C2
:100E100048700C4901EBC401C8700A4901EBC401D8
:100E20000871084901EBC4014871064901EBC4018E
:100E30008870044901EBC40188712046FFF78EFCDD
:100E400010BD00004008002010B51820FFF7E4F99D
:100E5000814908601820FFF7DFF9804908601820F1
:100E6000FFF7DAF97E4908601820FFF7D5F97D49C8
:100E700008601820FFF7D0F97B4908601820FFF7B9
:100E8000CBF97A4908601820FFF7C6F9784908605D
:100E90001820FFF7C1F9774908601820FFF7BCF95F
:100EA000754908601820FFF7B7F9744908606B4866
:100EB00000686949096808607148674909684861BC
:100EC00067480068654909680860644800686349C4
:100ED0000968C860654800686049096888606948B1
:100EE0005E490968486105205C49096808745D48E5
:100EF00000685B49096808605948006858490968F2
:100F0000C8605A4800685649096888605E48544974
:100F10000968486104205249096808745248006809
:100F20005049096808604F4800684E490968C86020
:100F30004E4800684B490968886054484949096827
:100F400048610320474909680874434800684649D6
:100F5000096808604448006843490968C860434814
:100F6000006841490968886049483F490968486103
:100F700002203D49096808743D4800683B490968FA
:100F80000860002039490968C86042483749096843
:100F90004861012035490968087434490968487472
:100FA00034480068324909680860002030490968FF
:100FB000C86039482E490968486101202B490968F1
:100FC00048742B4909680874022029490968487443
:100FD00029480068274909680860002025490968F0
:100FE000C8602E48234909684861012021490968E1
:100FF000087403201F4909684874204800681E4986
:101000000968086000201C490968C86024481A491A
:1010100009684861012018490968087404201649C4
:10102000096848741148006814490968086000207C
:1010300012490968C8601B481049096848610120C5
:101040000E490968087405200C490968487402486B
:1010500000681549086010BD980100209C0100201F
:10106000A0010020A4010020A8010020AC01002064
:10107000B0010020B4010020B8010020BC01002014
:10108000D5490008E1450008D9460008E9470008AD
:10109000F94800084D3100087D35000899390008ED
:1010A000B13D0008C9410008C00100200749096896
:1010B000C86007490968C86006490968C8600649E8
:1010C0000968C86005490968C8607047AC0100201C
:1010D000B0010020B4010020B8010020BC010020B4
:1010E00000F01F02012191404209920002F1E0222A
:1010F000C2F800117047000010B504460B4890F884
:101100003E00A0420FD1094890F8420058B108A013
:1011100001F094F90021204601F09BF909A001F0AB
:101120008DF9012010BD0020FCE700000E04002016
:1011300041434B5F72656365697665642066726FD3
:101140006D3A20000A0000000EB52548006840F006
:10115000030023490860002000900190034601220B
:10116000092102900A20FFF793FB052001210022AC
:101170001346CDE900210290022203210B20FFF744
:1011800087FB0520012100221346CDE900210290B2
:10119000022201460B20FFF77BFB052001210022E4
:1011A0000B46CDE900210290022204210B20FFF71B
:1011B0006FFB002000900190034601220F21029056
:1011C0000A20FFF765FB0748808A40F40040054984
:1011D00088820548008820F04000034908800EBD41
:1011E0001C38024000000240003001403EB500F0D3
:1011F000BFFB00BFAA222F21012000F079F90022B5
:101200002F21104600F074F9AA28F3D100BF55220F
:101210002F21012000F06CF900222F21104600F050
:1012200067F95528F3D100220121104600F060F93A
:1012300004220121084600F05BF90022012110463A
:1012400000F056F900220221012000F051F902229B
:101250000321012000F04CF940220421012000F07C
:1012600047F903220521012000F042F9332206212B
:10127000012000F03DF9D9220721012000F038F9C2
:1012800000220821012000F033F900220921012069
:1012900000F02EF942221921012000F029F95222F2
:1012A0002521012000F024F977222621012000F0D9
:1012B0001FF9002000900190012302460D210290A9
:1012C0000C20FFF7E5FA6148006840F001005F4933
:1012D00008605F48406940F020015D4841615D4819
:1012E000006840F400505B4908605A4808300068C4
:1012F00040F4005057490831086028200121002897
:1013000007DA0A07140E544A00F00F031B1FD454C7
:1013100003E00A07130E514A135400BF282000F0BF
:101320001F02012191404209920002F1E022C2F81D
:10133000001100BF002000900190012302460B2104
:1013400002900846FFF7A4FA0020009001900123C4
:1013500002460C2102900B20FFF79AFA0020009021
:101360000190012302460E2102900B20FFF790FA14
:10137000002000900190012302460F2102900B20D3
:10138000FFF786FA00200090019001230246082111
:1013900002900A20FFF77CFA10222821012000F099
:1013A000A7F8DC222921012000F0A2F888222E21B2
:1013B000012000F09DF82D222F21012000F098F847
:1013C00064223021012000F093F89022372101207F
:1013D00000F08EF842223821012000F089F88F2297
:1013E0003C21012000F084F812223D21012000F070
:1013F0007FF830226F21012000F07AF818A000F069
:101400002DF90F221321012000F072F89F221121E3
:10141000012000F06DF8012000F0C0FC98220D21A1
:10142000012000F065F818220E21012000F060F87C
:10143000FA220F21012000F05BF800200D4981F80D
:10144000460000F043FA01203EBD00002038024073
:10145000000001400004014018ED00E000E400E05D
:1014600046697368696E674D6F6E73746572732138
:10147000000000000E0400200648006840F4805080
:10148000044908600448008840F6243108430249B2
:101490000880704720380240003001401349098815
:1014A00021F40061114A118000BF1049098901F03F
:1014B00080010029F9D10D49888100BF0B490989B4
:1014C00001F001010029F9D008498989C8B200BF9B
:1014D0000649098901F080010029F9D103490988E9
:1014E00041F40061014A1180704700000030014062
:1014F00010B5034613B1012B7ED146E04348008866
:1015000040F04000414C20804148808A20F4004057
:101510003F4CA0823D488089C2B200BF3B48008951
:1015200000F002000028F9D000BF3848008900F020
:1015300080000028F9D140EA0120344CA08100BF8E
:101540003248008900F002000028F9D000BF2F487F
:10155000008900F001000028F9D02C488089C2B22F
:1015600000BF2A48008900F080000028F9D12848EF
:10157000808A40F40040264CA0822448008820F055
:101580004000224C2080104610BD2048008840F0CA
:1015900040001E4C20801E48808A20F400401C4CD5
:1015A000A08200BF1948008900F002000028F9D08D
:1015B00000BF1648008900F080000028F9D141F0F2
:1015C000800042EA0020114CA08100BF0F48008932
:1015D00000F002000028F9D000BF0C48008900F09C
:1015E00080000028F9D10A48808A40F40040084C65
:1015F000A0820648008800E004E020F04000034C90
:10160000208000BF00BF00BFBEE7000000300140E7
:101610000000024070B504460D46002221461046E7
:10162000FFF766FF2843C6B2324621460120FFF786
:101630005FFF70BD00B5002201211046FFF758FF83
:1016400000F01000102807D0002000F057F910F12A
:101650005A0F01DA012000BD0020FCE730B5044636
:10166000012000F09BFB44B31848008840F0400084
:10167000164908801648808A20F400401449888260
:10168000BE20FFF70BFF002504E0605DFFF706FFBB
:10169000681CC5B2102DF8DB0D48808A40F400406C
:1016A0000B4988820948008820F0400007490880DB
:1016B0000846008820F0400008800CB1012000E0BE
:1016C000002001463D20FFF7A5FF30BD003001405E
:1016D0000000024010B5FFF737FDFFF7CDFEFFF722
:1016E00085FD10BD70B54A48008840F0400048496B
:1016F00008804848808A20F40040464988820020BB
:10170000FFF7CCFE0020FFF7C9FE434981F84000F7
:101710000020FFF7C3FE404981F83F00084690F8DB
:101720004000C01E81F83D000020FFF7B7FE3A4997
:1017300081F83E000020FFF7B1FE054605F080006D
:10174000354981F8420005F0400081F8410000244D
:1017500006E00020FFF7A2FE2F490855601CC4B226
:101760002D4890F83D00A042F3DC2B4890F83D0056
:101770003D2805DA0020284991F83D10264A5054AA
:101780002448808A40F4004022498882204800880A
:1017900020F040001E490880002000F0AFF81E49EC
:1017A000A1F844001DA000F049FE1B4991F83E003D
:1017B000002100F04EFE1FA000F040FE164991F8F7
:1017C0003F00002100F045FE1CA000F037FE12494A
:1017D00091F83D00002100F03CFE1AA000F02EFE22
:1017E0000D49B1F94400002100F033FE18A000F0CB
:1017F00025FE094890F8420010B117A000F01EFE27
:10180000054890F8410010B117A000F017FE70BD18
:1018100000300140000002400E0400205061636B64
:1018200065742072656365697665642066726F6DA4
:101830003A20000020746F3A20000000207769747D
:101840006820000020627974657320616E64200056
:1018500020525353492E200041434B20726563654B
:10186000697665642E0A0000497420726571756599
:101870007374732041434B2E0A00000010B52422DC
:1018800001210846FFF734FE042201210846FFF734
:101890002FFE04E0042201210846FFF729FE002262
:1018A00001211046FFF724FE00F01C000428F1D1AE
:1018B00001A000F0C3FD10BD4C697374656E206D0E
:1018C0006F6465204F46462E0A00000010B50120C7
:1018D00000F064FA402201210846FFF709FE02A049
:1018E00000F0ACFD10BD00004C697374656E206D96
:1018F0006F6465204F4E2E0A0000000030B504468C
:1019000000256CB101212320FFF784FE00BF0022D7
:1019100023211046FFF7ECFD00F002000028F6D06E
:10192000002224211046FFF7E3FD404205B26D106E
:10193000284630BD00B500200C4981F83D0081F8F3
:101940003E0081F83F0081F8400081F84100A1F895
:101950004400002228211046FFF7CAFD00F00400D1
:1019600018B104213D20FFF755FE00BD0E040020F4
:101970003EB500200090019003460122092102900B
:101980000A20FEF785FF1448808A40F4007012494F
:1019900088820021084600F0F5FA044600BF21467F
:1019A000012000F0EFFA0028F9D00B48808A20F4DB
:1019B0000070094988820021084600F0E3FA0446D5
:1019C00000BF2146012000F0DDFA0528F9D303A06D
:1019D00000F034FD3EBD00000000024052464D368E
:1019E000395720726573657420646F6E652E0A0026
:1019F0002DE9F84304460D4616461F4604213D20B6
:101A0000FFF708FE0021084600F0BCFA804600BF40
:101A1000FFF710FE30B94146012000F0B3FAB0F5EF
:101A20007A7FF5D300203B46324629460090204677
:101A300000F030F8BDE8F883F8B504460D460F48CD
:101A400090F83E60B0F9447004213D20FFF7E2FDBC
:101A5000012000232A4621460090304600F01AF863
:101A600007A000F0EBFC0021304600F0F2FC08A0DB
:101A700000F0E4FC0148A0F84470F8BD0E0400201A
:101A800041434B5F73656E7420746F3A2000000011
:101A90000A0000002DE9F84F8346894614461E4689
:101AA000DDF828A0012000F079F90021084600F0B7
:101AB0000FF93D2C00DD3D24BAF1000F01D0802745
:101AC00001E006B140274048008840F040003E4910
:101AD00008803E48808A20F400403C49888280206B
:101AE000FFF7DCFCE11CC8B2FFF7D8FC5846FFF753
:101AF000D5FC374991F84600FFF7D0FC3846FFF790
:101B0000CDFC002505E019F80500FFF7C7FC681CAF
:101B1000C5B2A542F7DB2D48808A40F400402B492E
:101B200088822948008820F0400027490880042046
:101B300000F034F90021084600F024FA009000BFBC
:101B40002448008800F4005030B90120009900F0CA
:101B500019FAB0F57A7FF3D31E48008800F40050DC
:101B6000002826D01CA000F069FC0021584600F097
:101B700070FC1EA000F062FC154991F8460000219F
:101B800000F067FC1BA000F059FC0021204600F08B
:101B900060FC1AA000F052FCBAF1000F02D01AA0AB
:101BA00000F04CFC16B11CA000F048FC4FF00108FE
:101BB00004E01EA000F042FC4FF00008012000F0FD
:101BC000EDF84046BDE8F88F0030014000000240CB
:101BD0000E040020100802405061636B657420738E
:101BE000656E7420746F3A20000000002066726FEA
:101BF0006D3A2000207769746820000020627974B3
:101C000065732E200000000049742073656E6473B4
:101C10002041434B2E0A000049742072657175659E
:101C20007374732041434B2E0A0000005061636BB4
:101C300065742073656E64696E672074696D656490
:101C4000206F75742E0A00002DE9F04706460F46F6
:101C500090461C46DDF82090FFF710FE012000F0B2
:101C60009DF800252BE00020184981F8420001234F
:101C7000424639463046FFF7BBFE032000F08EF89F
:101C80004021002000F024F80021084600F07AF9F5
:101C9000824609E03046FFF72FFA28B1012000F014
:101CA0007DF80120BDE8F0875146012000F06AF977
:101CB0004845EFD3012000F071F8681CC5B2A54279
:101CC000D1DDFFF703FE0020ECE700000E0400204A
:101CD00070B505460C46062D5ED2DFE805F003120E
:101CE00021303F4E002225211046FFF701FC20F055
:101CF000C0002043C6B2324625210120FFF7F8FB81
:101D00004AE0002225211046FFF7F2FB20F03000C8
:101D10002043C6B2324625210120FFF7E9FB3BE014
:101D2000002225211046FFF7E3FB20F00C002043A2
:101D3000C6B2324625210120FFF7DAFB2CE0002253
:101D400025211046FFF7D4FB20F003002043C6B244
:101D5000324625210120FFF7CBFB1DE00022262182
:101D60001046FFF7C5FB20F0C0002043C6B2324644
:101D700026210120FFF7BCFB0EE0002226211046A1
:101D8000FFF7B6FB20F030002043C6B232462621D2
:101D90000120FFF7ADFB00BF00BF70BD30B50446AA
:101DA000052C4DD2DFE804F03F3021120300002261
:101DB00001211046FFF79CFB00F0E30040F00C050A
:101DC0002A4601210846FFF793FB39E00022012152
:101DD0001046FFF78DFB00F0E30040F010052A46A7
:101DE00001210846FFF784FB2AE00022012110466A
:101DF000FFF77EFB00F0E30040F008052A460121D2
:101E00000846FFF775FB1BE0002201211046FFF793
:101E10006FFB20F01C00001DC5B22A4601210846B8
:101E2000FFF766FB0CE0002201211046FFF760FB84
:101E300000F0E3052A4601210846FFF759FB00BFE1
:101E400000BF00BF2CB90348008A00F4807000284E
:101E5000F8D030BD000002403349098901F001018A
:101E600000295FD0304988893049898A41F400418E
:101E70002E4A91822C49098821F040012A4A11807A
:101E80002B4991F850102A4A02EB810189781146BA
:101E900091F85010491C142903D1002182F85010E8
:101EA00006E0234991F85010491C214A82F850104D
:101EB0001F4991F850101E4A92F8512091421DD1AD
:101EC00000BF1949098901F080010029F9D117499A
:101ED000898A41F40041154A91821349098821F009
:101EE0004001114A11801146098821F040011180FA
:101EF0001146898821F04001918013E00A49098840
:101F000041F04001084A11800849898A21F40041C2
:101F1000064A9182064991F85010054A32F821107C
:101F2000014A9181704700000030014000000240EA
:101F3000BC03002010B54FF0E020006940F0020023
:101F40004FF0E021086141F29410486108460069B1
:101F500040F00100086148170121002807DA0A074C
:101F6000140E064A00F00F031B1FD45403E00A07A7
:101F7000130E034A135400BF10BD000018ED00E01B
:101F800000E400E0024612B90A4800687047012ADE
:101F90000DD108480068884203D306480068401AFB
:101FA000F4E7C1F1FF30034B1B681844EEE700BFB4
:101FB000ECE70000C40100200CB500200190009067
:101FC0003E48006840F480303C49086000BF3B4810
:101FD000006800F4003000900198401C01900098C7
:101FE00018B90198B0F5A06FF1D13448006800F439
:101FF000003010B10120009001E000200090009816
:10200000012859D12E48006840F004002C4908608E
:102010000846006840F0020008600846006840F08A
:102020000100086025482430006840F080502349B2
:1020300024310860C8142349086000BF2148406863
:1020400000F010000028F9D11C48083000681B4936
:1020500008310860084600680860084600680860A3
:102060000846006820F47D0008600846006840F4D7
:102070009A0008601148006840F080700F490860BD
:1020800000BF0E48006800F000700028F9D00B482F
:102090000830006820F0030008490831086008464D
:1020A000006840F00300086000BF04480830006882
:1020B00000F00C000C28F8D10CBD000000380240E4
:1020C000003C02400070004010B50A480068401C07
:1020D0000849086008480078401C0749087008460D
:1020E00000780A2804D1FEF7F1FC002002490870AC
:1020F00010BD0000C4010020C801002010B5154823
:10210000006840F480701349086012480830006885
:10211000114908400F49083108600E4800680F490E
:1021200008400C4908600846006820F480200860D8
:1021300008480830006820F47D000649083108602E
:102140000020091D0860FFF737FF4FF000600449C9
:10215000086010BD003802400CC0FF88FEFFFEEE94
:1021600008ED00E00B48008800F0010080B109484C
:10217000008820F001000749088001200649087006
:102180000648007808B9012000E0002003490870E3
:1021900070470000100C0140910100206D010020EB
:1021A00010B56248008800F0010000284CD05F485C
:1021B000008820F001005D4908805D4800781428FF
:1021C00052D15C48007E5B4951F8300000884FF6E0
:1021D000FF71884239D00020574908605548007E79
:1021E000544901EBC0004068007853490831086049
:1021F000504B1B7E4F4C04EBC303191D5868431C06
:102200000B60027802EBD2735B104B4C10342360EE
:10221000484A127E474B03EBC2010868821C0A60E1
:102220000288424B1C331A6040481038008840F046
:1022300001003E49103908803F482438008840F0AA
:1022400001003D49243908806FE03A48007E394951
:1022500051F8300000884FF6FF71884265D1FEF7D3
:1022600091F9FEF7B1F960E0314800780A2824D1ED
:1022700000203149086031488179801C30F8110014
:102280002D49083108602D498A79891C31F81200DE
:1022900000EBD0714910284A10321160274880792C
:1022A000C0F101002549887120481038008840F0AD
:1022B00001001E491039088037E01D4800781E28AB
:1022C00033D11F48807940B300201B4908601C4867
:1022D00000881949083108601949088800EBD07155
:1022E0004910154A10321160154880880F491C3179
:1022F000086011482438008840F001000E49243954
:1023000008800A481038008840F001000749103959
:10231000088000200A49887107E00948807920B9BF
:10232000012007498871FEF74FF910BD10040040E5
:1023300026000020CC01002024080140E8010020F4
:102340001E0000201748008800F0400040B31648E7
:1023500090F8E803401CB0F57A7F04D100201249C0
:1023600081F8E80306E0104890F8E803401C0E49A5
:1023700081F8E8030C4890F8E8030B4991F8E91359
:10238000884207D0084890F8E8030749085C0549E7
:10239000091D08800348008820F04000014908809A
:1023A0007047000000380140560400200EB519485F
:1023B000006840F0020017490860081D006840F4FA
:1023C0008040091D08600720002100910B46022271
:1023D000CDE9011006210B20FEF75AFA0720002153
:1023E00000910B460222CDE9011001460B20FEF7B9
:1023F0004FFA094800684FF4E131B0FBF1F00749AA
:102400000880081D008842F20C0108430349091D99
:1024100008800EBD1C380240000000200838014032
:1024200000BF0549098801F080010029F9D002495F
:10243000091D0880704700000038014000B50246C1
:1024400003E01078FFF7ECFF521C10780028F8D159
:1024500000BD2DE9F04188B005460C4684B92846F8
:1024600002F060FC0646002032460B46009001A8B0
:1024700000F0D4FA01A8FFF7E1FF08B0BDE8F08151
:10248000022C10D1284600F08DFB804602F033FC70
:102490000646002032460B46009001A800F0BEFA26
:1024A00001A8FFF7CBFF00BFE7E7000000B5024639
:1024B000034830F8120003490880FEF785F800BD94
:1024C0003A000020E801002000B50246064810F856
:1024D000120006494880044800EB42004178034856
:1024E0008180FEF771F800BD27000020E801002080
:1024F0000449095C044A118111460989034A1160A3
:102500007047000033000020E801002010740040F4
:102510000A201249087012480089124908601048C0
:102520000088114908601148008800F001000F4937
:10253000088020B90846008840F0010008800A4859
:102540002C38008800F0010007492C39088020B998
:102550000846008840F001000880704726000020EF
:10256000E8010020107400402C04004000080140E5
:1025700000B5FEF729F800BD00B5FEF779F8FEF7C3
:102580008DF8FDF799FFFDF7BBFF2648006840F086
:102590000200244908602448008840F2F231884350
:1025A000214908800846008840F00800088047F666
:1025B000FF401D49283108800120091D08600020C6
:1025C000194924310860194988714F201849088039
:1025D00032204880642088801D20012181404209EA
:1025E000920002F1E022C2F8001100BF0E480C3048
:1025F000008840F001000C490C3108800A48143072
:10260000008840F00100084914310880081F008844
:1026100020F00100091F0880FDF7D6FFFDF7B2FF8B
:1026200000BD00002438024000040040E801002002
:102630001E0000200120084988710846408807498B
:1026400008601E20064908700648008840F0010016
:1026500004490880704700001E00002010740040EC
:10266000260000200004004010B504461421601E1E
:10267000034A115400F0DEF800200249087010BD32
:102680006E0100209101002010B50446601E0F4924
:10269000085C142807D10A21601E0C4A115401203D
:1026A0000B49087010E00A48007868B1601E0749BD
:1026B000085C0A2808D100200549087000F0BAF823
:1026C0004FF4C87000F0C8F810BD00006E01002083
:1026D000910100202DE9F84F04460E464FF0000B03
:1026E000DA460020009000278046814635460CB926
:1026F000012402E0052C00DD0524601E104951F87C
:102700002000C0F30747601E51F8200000F0FF08CA
:10271000601E51F82000C0F307297819C7B208EBF2
:10272000050000F0FF0809EB050000F0FF094B462B
:102730003A4641462046FEF721FA5046BDE8F88F5A
:1027400094030020F0B506460F460024002501241E
:1027500007E03A4631462046FFF7BCFF0544601CBF
:10276000C4B2052CF5DD0520B5FBF0F52846F0BD1B
:1027700010B50446044804700A210020FFF7E2FF68
:1027800000F080F810BD00007301002010B5044671
:102790000249085DFFF7ECFF10BD00008901002031
:1027A00010B5002400F084FA00F0FEFA0A2000F0D0
:1027B0000FFA00F05DFA00BF0F4800780028FBD147
:1027C000142000F005FA00F09DFA64200B4908700F
:1027D000002404E014200A490855601CC4B2052CEA
:1027E000F8DB63200749087064200749087005205A
:1027F0000649087010BD0000900100207301002000
:102800006E0100206A010020690100206B01002098
:1028100000B5002200BF05E00C20054921F8120098
:10282000501CC2B2782AF7DB00F0F0FA00BD0000BD
:10283000A402002000B500BF064800780028FBD1A4
:1028400000F020F800F0E2FA00BF0248007800280B
:10285000FBD100BD900100200849097861B9084901
:1028600008600021054A117005492C39098841F09A
:102870000101034A2C3A11807047000091010020A9
:102880002C0C01402DE9F04185B0002400230025E7
:102890000026002700BF3B4800780028FBD100231A
:1028A0006BE03948C05C142807D03848007801280C
:1028B00036D13548C05C0A2832D1354850F823005B
:1028C000C0F30740334909784843642190FBF1F095
:1028D00000F0FF08404602F019F905462C4850F870
:1028E0002300C0B22B4909784843642190FBF1F0E2
:1028F00000F0FF08404602F009F90646244850F867
:102900002300C0F30720234909784843642190FB42
:10291000F1F000F0FF08404602F0F8F8074609E041
:102920001A48007830B91848C05C0A2802D100253E
:1029300000260027380440EA052030434DF82300E4
:10294000002416E05DF823000121A140084038B1C1
:102950001E20182101FB03410F4A22F8110006E056
:102960000C20182101FB03410B4A22F81100601CC6
:10297000C4B2182CE6DB581CC3B2052B91DB05B0A2
:10298000BDE8F081900100206E0100206D01002063
:102990009403002073010020A40200202DE9F047D9
:1029A00007460C4615461E4600BF00BFC5EBC500D6
:1029B000C0EBC510642190FBF1F000F0FF08C4EB00
:1029C000C400C0EBC41090FBF1F000F0FF09C6EBAF
:1029D000C600C0EBC61090FBF1F000F0FF0A5346B2
:1029E000424649463846FEF7C9F8BDE8F087000080
:1029F00070B505460C4604EB4400074E304483781E
:102A000004EB44003044427804EB4400315C284637
:102A1000FFF7C4FF70BD0000740100202DE9F04FE6
:102A200093B0834616461F46DDF87080BBF1000F59
:102A300001D1584800E05846044601201290002277
:102A400013463046394602F081F90BD22D2004F8A6
:102A5000010B0022504B3046394602F0B3F90646CE
:102A60000F4605E04D48006810B12B2004F8010B1B
:102A7000B8F1080F0BD24A4800EBC80003C8324631
:102A80003B46CDE9060102F055F806460F46002503
:102A900005E0129800EB8000400012906D1C454547
:102AA000F7D33046394602F0F9F88146129802F021
:102AB00039F9CDE90401484602F034F932463B4683
:102AC000CDE9000102F07CFACDE90201DDE9042341
:102AD00002F078F9CDE9060102F0E0F8824600251F
:102AE0000CE00A20B9FBF0F100FB119030302946D0
:102AF0006D1C08AA50540A20B9FBF0F9B9F1000F77
:102B0000EFD11DB9302004F8010B08E005E0681E84
:102B100008A9085C04F8010B6D1E002DF7D1B8F16F
:102B2000000F2AD02E2004F8010B00250CE00A200B
:102B3000BAFBF0F100FB11A0303029466D1C08AA49
:102B400050540A20BAFBF0FABAF1000FEFD104E0BA
:102B5000302228466D1C08A90A544545F8D31DB9F2
:102B6000302004F8010B08E005E0681E08A9085CA5
:102B700004F8010B6D1E002DF7D100202070BBF171
:102B8000000F01D1034800E05846044613B0BDE8E9
:102B9000F08F0000F20100200000F0BF440100208F
:102BA000B051000830B50146012300200DE00C466D
:102BB00001EBD4756D10A1EB450201EBD1756910E5
:102BC00002FB030003EB830463000029EFD130BD57
:102BD00010B504464FF08040808840F008004FF068
:102BE000804188801D48006840F080701B49086063
:102BF0001B48C06943F2A05108431949C8610846FF
:102C0000C06920F04000C8610846C06940F010006B
:102C1000C861144848620A2C09D10846C06920F0EE
:102C20000300C86110488862182008620BE0142C69
:102C300009D10B48C06920F003000949C8610B485D
:102C40008862782008620648C06940F003000449A1
:102C5000C8610C20FEF744FA10BD00001C38024089
:102C6000006002403C00004074020020A4020020EA
:102C7000002000BF05E000210B4A22F81010411C83
:102C8000C8B21828F7DB0121084A117089070988A2
:102C900041F001014FF08042118000BF03490978E3
:102CA0000029FBD170470000740200209001002031
:102CB0001248006840F0020010490860104800689F
:102CC00040F400100E490860081D008820F4806060
:102CD000091D0880081D006840F40010091D0860E7
:102CE000081D006840F48010091D08600448406A0F
:102CF00040F4807102484162704700001C38024075
:102D00000004024010B52548006840F0080023493F
:102D100008600020224908702248008840F2F23101
:102D20008843204908800846008840F00800088051
:102D300047F6FF401B49283108800020091D086024
:102D400018492431086017480C30008840F20111FE
:102D5000884314490C3108801248001D008820F077
:102D600008001049091D08801A20FEF7B9F90D481E
:102D70000C30008840F001000A490C3108800948F5
:102D80001430008840F00100064914310880081F03
:102D9000008820F00100091F088010BD2038024083
:102DA00091010020000C01401748006840F001002C
:102DB000154908600807008840F2F2318843490746
:102DC00008800846808840F0080088800846808B8C
:102DD00040F0600088830846008C40F480700884CE
:102DE0000846808940F4807088810020088527206B
:102DF000C8620846808A40F0010088820846008A3E
:102E000020F0010008827047243802400120074961
:102E100008708007008840F001004FF08041088072
:102E200000BF024800780028FBD1704790010020C5
:102E30000EB5FFF77FF800210846FFF7A3F8044618
:102E400000BF21460120FFF79DF8B0F57A7FF8D347
:102E50009448006840F0010092490860002000900A
:102E6000019003460122032102900A20FDF710FD84
:102E700000200090019003460122072102900A20C1
:102E8000FDF706FD8848008B40F00800864908835E
:102E90000846008B40F080000883FDF7EFFDFDF74A
:102EA000D3FFFFF783FA81A0FFF7C8FAFEF712FC01
:102EB000FFF762FBFFF774FCFFF7AAFC82A0FFF7A5
:102EC000BDFA00BF7848008A00F001000028F9D15F
:102ED0000220FFF70DFB0220FFF7F6FA0220FFF7B2
:102EE000E5FA00BFFDF7B8FD06467F480068416976
:102EF000304688476C48008A00F00400002863D000
:102F000000210846FFF73EF8054657E0764800687E
:102F100076490968884206D073480068C0687349DA
:102F20000968884202D10520FFF7AEFB6E480068B1
:102F30006F490968884206D06B480068C0686C49D0
:102F40000968884202D10420FFF79EFB66480068AA
:102F500068490968884206D063480068C0686549C6
:102F60000968884202D10320FFF78EFB5E480068A3
:102F700061490968884206D05B480068C0685E49BC
:102F80000968884202D10220FFF77EFB2946012012
:102F9000FEF7F8FF40F2DC5188420FD900231A46B1
:102FA00019460120FFF7FAFCFFF744FC53A0FFF796
:102FB00045FA4D480068C0684B4908603A48008AA5
:102FC00000F004000028A1D13748008A00F0010079
:102FD000002887D000210846FEF7D4FF044659E0B8
:102FE0004148006841490968884206D03E48006867
:102FF000C0683E490968884202D10520FFF744FBBA
:10300000394800683A490968884206D0364800685D
:10301000C06837490968884202D10420FFF734FBB1
:103020003148006833490968884206D02E48006854
:10303000C06830490968884202D10320FFF724FBA9
:10304000294800682C490968884206D0264800684B
:10305000C06829490968884202D10220FFF714FBA1
:1030600021460120FEF78EFF40F6B831884211D983
:10307000FFF7CEFB27A0FFF7E1F90B48808A20F08D
:103080000800094988820846808A20F080008882EA
:1030900000BFFEE70448008A00F00100002898D035
:1030A0009EE700001C380240000002405065726933
:1030B00070686572616C7320696E697469616C69AE
:1030C0007A65642E0A00000045787465726E616C42
:1030D000206465766963657320696E697469616CE3
:1030E000697A65642E0A0000C00100209C0100205E
:1030F000A0010020A4010020A8010020476F696EF4
:103100006720757020746F206C6576656C20302E9A
:103110000A000000506F776572206F666620646554
:103120007465637465642E2053797374656D2062D1
:1031300061636B65642075702E20537769746368D2
:10314000696E67206F66662E0A0000001CB5044693
:1031500001210846FFF74CFCE1480068C068E149DE
:103160000968884202D10520FFF78EFADC48006822
:10317000C068DD490968884202D10420FFF784FA5B
:10318000D7480068C068D9490968884202D103203D
:10319000FFF77AFAD2480068C068D54909688842C2
:1031A00002D10220FFF770FA012C7DD0022C7CD0D6
:1031B000042C7BD1FFF73EFA0120FDF72FFAC84817
:1031C0000068C068C749096888421CD1C94840786E
:1031D000062803D10020C749487004E0C54840785C
:1031E000401CC4494870C34841780520FFF700FCE3
:1031F000C1A0FFF723F9BF4948780021FFF729F95B
:10320000C1A0FFF71BF9B6480068C068B649096855
:1032100088421DD1B748407A062803D10021B5481D
:10322000417205E0B348407A401CC1B2B1484172D6
:10323000B048417A0420FFF7DBFBAFA0FFF7FEF8B0
:10324000AC49487A0021FFF704F9B4A0FFF7F6F87B
:10325000A3480068C068A549096888421DD1A548EF
:10326000407C062803D10021A248417405E0A14812
:10327000407C401CC1B29F4841749E48417C032061
:10328000FFF7B6FB9CA0FFF7D9F89A49487C0021CC
:10329000FFF7DFF8A6A0FFF7D1F891480068C068F3
:1032A00093490968884202E021E081E015E11DD1DF
:1032B0009048407E062803D100218E48417605E0E3
:1032C0008C48407E401CC1B28A4841768948417E84
:1032D0000220FFF78DFB88A0FFF7B0F88549487EF4
:1032E0000021FFF7B6F897A0FFF7A8F8F5E0FFF781
:1032F000A1F90120FDF792F903208DF80400784828
:103300000068C0687749096888420CD179484078DC
:103310008DF805000A2077490090C8790F23022212
:1033200001A9FEF791FC6E480068C0686E49096803
:1033300088420CD16F48407A8DF805000A206D490B
:103340000090C87B0F23022201A9FEF77DFC644890
:103350000068C0686549096888420CD16548407CAE
:103360008DF805000A2063490090C87D0F230222D2
:1033700001A9FEF769FC5A480068C0685C49096801
:1033800088420CD15B48407E8DF805000A205949DF
:103390000090C87F0F23022201A9FEF755FC6EA002
:1033A000FFF74CF84E48006800684D49086094E00B
:1033B000FFF740F90120FDF731F949480068C0687E
:1033C0004849096888421BD14A48407818B9062004
:1033D0004849487004E047484078401E45494870D5
:1033E000444841780520FFF703FB43A0FFF726F888
:1033F000404948780021FFF72CF843A0FFF71EF85A
:1034000037480068C0683849096888421CD1394883
:10341000407A18B906213748417205E03548407AAC
:10342000401EC1B2334841723248417A0420FFF74E
:10343000DFFA31A0FFF702F82E49487A0021FFF7A2
:1034400008F836A0FEF7FAFF25480068C06827494B
:10345000096888421CD12748407C18B906212548B4
:10346000417405E02348407C401EC1B221484174AC
:103470002048417C0320FFF7BBFA1FA0FEF7DEFFC8
:103480001C49487C0021FEF7E4FF29A0FEF7D6FF87
:1034900013480068C0681649096888421CD115485D
:1034A000407E18B906211348417605E01148407E58
:1034B000401EC1B20F4841760E48417E0220FFF700
:1034C00097FA0DA0FEF7BAFF0A49487E0021FEF7E1
:1034D000C0FF1CA0FEF7B2FF00BF00BF1CBD000074
:1034E000C00100209C010020A0010020A4010020B8
:1034F000A801002040080020094C454420636F6C5F
:103500006F7220230000000020666F72202331209C
:103510007379676E616C6C65722E0A0020666F723B
:10352000202332207379676E616C6C65722E0A00FD
:1035300020666F72202333207379676E616C6C652F
:10354000722E0A0020666F72202334207379676E12
:10355000616C6C65722E0A002D322D204C45442082
:103560006272696768746E657373207365747469D9
:103570006E67206D6F64652E0A0000001CB504465E
:1035800002210120FFF734FADC480068C068DC49FA
:103590000968884202D10520FFF776F8D74800680D
:1035A000C068D8490968884202D10420FFF76CF846
:1035B000D2480068C068D4490968884202D1032013
:1035C000FFF762F8CD480068C068D04909688842B2
:1035D00002D10220FFF758F8012C7DD0022C7CD0BC
:1035E000042C7BD1FFF726F80120FDF717F8C3481C
:1035F0000068C068C249096888421BD1C448807805
:10360000062803D10020C249887004E0C0488078B1
:10361000401CBF498870BE498878FFF7B7F8BDA045
:10362000FEF70CFFBA4988780021FEF712FFBEA012
:10363000FEF704FFB1480068C068B24909688842D3
:103640001CD1B348807A062803D10021B04881728A
:1036500005E0AF48807A401CC1B2AD488172AC49E8
:10366000887AFFF793F8ABA0FEF7E8FEA849887ABE
:103670000021FEF7EEFEB1A0FEF7E0FE9F480068D5
:10368000C068A1490968884211D1A148807C0628F8
:1036900003D100219E48817405E09D48807C401C38
:1036A000C1B29B4881749A49887CFFF76FF899A052
:1036B000FEF7C4FE9649887C0021FEF7CAFEA4A04E
:1036C000FEF7BCFE8D480068C068904909688842D2
:1036D00020D18F48807E02E01DE07BE00BE10628D0
:1036E00003D100218A48817605E08948807E401C0C
:1036F000C1B2874881768649887EFFF747F885A062
:10370000FEF79CFE8249887E0021FEF7A2FE95A06E
:10371000FEF794FEEFE00120FCF780FF04208DF817
:10372000040076480068C0687549096888420CD171
:10373000774880788DF805000F2075490090C8798A
:103740000F23022201A9FEF77FFA6C480068C068C7
:103750006C49096888420CD16D48807A8DF8050063
:103760000F206B490090C87B0F23022201A9FEF7AE
:103770006BFA62480068C0686349096888420CD1E6
:103780006348807C8DF805000F2061490090C87D5A
:103790000F23022201A9FEF757FA58480068C068B3
:1037A0005A49096888420CD15948807E8DF8050035
:1037B0000F2057490090C87F0F23022201A9FEF76E
:1037C00043FA6DA0FEF73AFE4C48006800684B498A
:1037D000086090E0FEF72EFF0120FCF71FFF47482E
:1037E0000068C0684649096888421AD1484880780C
:1037F00018B906204649887004E045488078401E84
:103800004349887042498878FEF7C0FF41A0FEF71F
:1038100015FE3F4988780021FEF71BFE42A0FEF707
:103820000DFE36480068C0683649096888421BD1D9
:103830003748807A18B906213548817205E0344846
:10384000807A401EC1B2324881723149887AFEF7CF
:103850009DFF30A0FEF7F2FD2D49887A0021FEF78A
:10386000F8FD36A0FEF7EAFD24480068C068264946
:10387000096888421BD12648807C18B90621244853
:10388000817405E02248807C401EC1B220488174CA
:103890001F49887CFEF77AFF1EA0FEF7CFFD1C496A
:1038A000887C0021FEF7D5FD29A0FEF7C7FD13484F
:1038B0000068C0681549096888421BD11448807E99
:1038C00018B906211248817605E01148807E401E15
:1038D000C1B20F4881760E49887EFEF757FF0DA0D2
:1038E000FEF7ACFD0A49887E0021FEF7B2FD1DA05F
:1038F000FEF7A4FD00BF00BF1CBD0000C0010020FA
:103900009C010020A0010020A4010020A8010020AB
:1039100040080020094C4544206272696768746E53
:10392000657373202300000020666F72202331200E
:103930007379676E616C6C65722E0A0020666F7217
:10394000202332207379676E616C6C65722E0A00D9
:1039500020666F72202333207379676E616C6C650B
:10396000722E0A0020666F72202334207379676EEE
:10397000616C6C65722E0A002D332D20416C6172D2
:103980006D20746F6E652073657474696E67206D49
:103990006F64652E0A0000001CB504460321012057
:1039A000FFF726F8FEF7B4FDDB480068C068DB4986
:1039B0000968884202D10520FEF766FED6480068F5
:1039C000C068D7490968884202D10420FEF75CFE2E
:1039D000D1480068C068D3490968884202D10320F1
:1039E000FEF752FECC480068C068CF49096888429B
:1039F00002D10220FEF748FE012C7DD0022C7CD0A3
:103A0000042C7BD10120FCF709FEC3480068C06884
:103A1000C249096888421BD1C448C078052803D12F
:103A20000020C249C87004E0C048C078401CBF49AB
:103A3000C870BE49C878FEF747FDBDA0FEF7FEFC82
:103A4000BA49C8780021FEF704FDBDA0FEF7F6FCD8
:103A5000B1480068C068B249096888421CD1B348BF
:103A6000C07A052803D10021B048C17205E0AF48F3
:103A7000C07A401CC1B2AD48C172AC49C87AFEF7E9
:103A800023FDABA0FEF7DAFCA849C87A0021FEF7B7
:103A9000E0FCB0A0FEF7D2FC9F480068C068A149D6
:103AA000096888421CD1A148C07C052803D10021A7
:103AB0009E48C17405E09D48C07C401CC1B29B4833
:103AC000C1749A49C87CFEF7FFFC99A0FEF7B6FCCA
:103AD0009649C87C0021FEF7BCFCA3A0FEF7AEFC13
:103AE0008D480068C06890490968884220D18F4895
:103AF000C07E052807D102E01BE07BE009E1002140
:103B00008A48C17605E08948C07E401CC1B287481A
:103B1000C1768649C87EFEF7D7FC85A0FEF78EFCED
:103B20008249C87E0021FEF794FC94A0FEF786FC33
:103B3000EFE00120FCF772FDFEF71AFD05208DF87D
:103B4000040075480068C0687449096888420CD14F
:103B50007648C0788DF805000F2074490090C87928
:103B60000F23022201A9FEF76FF86B480068C068B6
:103B70006B49096888420CD16C48C07A8DF8050001
:103B80000F206A490090C87B0F23022201A9FEF78B
:103B90005BF861480068C0686249096888420CD1D6
:103BA0006248C07C8DF805000F2060490090C87DF8
:103BB0000F23022201A9FEF747F857480068C068A2
:103BC0005949096888420CD15848C07E8DF80500D3
:103BD0000F2056490090C87F0F23022201A9FEF74B
:103BE00033F86BA0FEF72AFC4B48006800684A498E
:103BF00008608EE00120FCF711FD47480068C068AE
:103C00004649096888421AD14848C07818B9052041
:103C10004649C87004E04548C078401E4349C87012
:103C20004249C878FEF750FC41A0FEF707FC3F4927
:103C3000C8780021FEF70DFC41A0FEF7FFFB3648D7
:103C40000068C0683649096888421BD13748C07A85
:103C500018B905213548C17205E03448C07A401EC4
:103C6000C1B23248C1723149C87AFEF72DFC30A08A
:103C7000FEF7E4FB2D49C87A0021FEF7EAFB35A0E8
:103C8000FEF7DCFB24480068C068264909688842C2
:103C90001BD12648C07C18B905212448C17405E011
:103CA0002248C07C401EC1B22048C1741F49C87C54
:103CB000FEF70AFC1EA0FEF7C1FB1C49C87C0021D0
:103CC000FEF7C7FB28A0FEF7B9FB13480068C068E1
:103CD0001549096888421BD11448C07E18B90521CE
:103CE0001248C17605E01148C07E401EC1B20F489F
:103CF000C1760E49C87EFEF7E7FB0DA0FEF79EFBDE
:103D00000A49C87E0021FEF7A4FB1CA0FEF796FB23
:103D100000BF00BF1CBD0000C00100209C010020AE
:103D2000A0010020A4010020A801002040080020DC
:103D300009416C61726D20746F6E65202300000074
:103D400020666F72202331207379676E616C6C6519
:103D5000722E0A0020666F72202332207379676EFC
:103D6000616C6C65722E0A0020666F72202333200E
:103D70007379676E616C6C65722E0A0020666F72D3
:103D8000202334207379676E616C6C65722E0A0093
:103D90002D342D20416C61726D20766F6C756D65D0
:103DA0002073657474696E67206D6F64652E0A00F8
:103DB0001CB5044604210120FEF71AFEFEF7A8FBFD
:103DC000DB480068C068DB490968884202D10520E9
:103DD000FEF75AFCD6480068C068D749096888428F
:103DE00002D10420FEF750FCD1480068C068D349D6
:103DF0000968884202D10320FEF746FCCC480068DF
:103E0000C068CF490968884202D10220FEF73CFC15
:103E1000012C7DD0022C7CD0042C7BD10120FCF71E
:103E2000FDFBC3480068C068C249096888421BD1CD
:103E3000C4480079052803D10020C249087104E074
:103E4000C0480079401CBF490871BE490879FEF797
:103E50004FFBBDA0FEF7F2FABA4908790021FEF740
:103E6000F8FABDA0FEF7EAFAB1480068C068B249A6
:103E7000096888421CD1B348007B052803D1002182
:103E8000B048017305E0AF48007B401CC1B2AD48AB
:103E90000173AC49087BFEF72BFBABA0FEF7CEFA13
:103EA000A849087B0021FEF7D4FAB0A0FEF7C6FAB5
:103EB0009F480068C068A149096888421CD1A14890
:103EC000007D052803D100219E48017505E09D482D
:103ED000007D401CC1B29B4801759A49087DFEF7E0
:103EE00007FB99A0FEF7AAFA9649087D0021FEF784
:103EF000B0FAA3A0FEF7A2FA8D480068C068904906
:103F00000968884220D18F48007F052807D102E048
:103F10001BE07BE009E100218A48017705E0894840
:103F2000007F401CC1B2874801778649087FFEF7B1
:103F3000DFFA85A0FEF782FA8249087F0021FEF7AA
:103F400088FA94A0FEF77AFAEFE00120FCF766FB0E
:103F5000FEF70EFB06208DF8040075480068C06867
:103F60007449096888420CD1764800798DF80500BB
:103F70000F2074490090C8790F23022201A9FDF790
:103F800063FE6B480068C0686B49096888420CD1C1
:103F90006C48007B8DF805000F206A490090C87BB3
:103FA0000F23022201A9FDF74FFE61480068C06897
:103FB0006249096888420CD16248007D8DF805008D
:103FC0000F2060490090C87D0F23022201A9FDF750
:103FD0003BFE57480068C0685949096888420CD1BF
:103FE0005848007F8DF805000F2056490090C87F83
:103FF0000F23022201A9FDF727FE6BA0FEF71EFA90
:104000004B48006800684A4908608EE00120FCF7D0
:1040100005FB47480068C0684649096888421AD1CC
:104020004848007918B905204649087104E0454818
:104030000079401E4349087142490879FEF758FA51
:1040400041A0FEF7FBF93F4908790021FEF701FA8C
:1040500041A0FEF7F3F936480068C06836490968A0
:1040600088421BD13748007B18B9052135480173B8
:1040700005E03448007B401EC1B23248017331492B
:10408000087BFEF735FA30A0FEF7D8F92D49087BFA
:104090000021FEF7DEF935A0FEF7D0F924480068CC
:1040A000C0682649096888421BD12648007D18B996
:1040B00005212448017505E02248007D401EC1B25B
:1040C000204801751F49087DFEF712FA1EA0FEF771
:1040D000B5F91C49087D0021FEF7BBF928A0FEF7C1
:1040E000ADF913480068C0681549096888421BD1BA
:1040F0001448007F18B905211248017705E01148DE
:10410000007F401EC1B20F4801770E49087FFEF7BD
:10411000EFF90DA0FEF792F90A49087F0021FEF79A
:1041200098F91CA0FEF78AF900BF00BF1CBD000073
:10413000C00100209C010020A0010020A40100205B
:10414000A80100204008002009416C61726D2076B2
:104150006F6C756D6520230020666F7220233120FF
:104160007379676E616C6C65722E0A0020666F72DF
:10417000202332207379676E616C6C65722E0A00A1
:1041800020666F72202333207379676E616C6C65D3
:10419000722E0A0020666F72202334207379676EB6
:1041A000616C6C65722E0A002D352D20416C617298
:1041B0006D2074656D706F2073657474696E67200F
:1041C0006D6F64652E0A00001CB5044605210120B0
:1041D000FEF70EFCFEF79CF9DB480068C068DB497F
:1041E0000968884202D10520FEF74EFAD6480068D9
:1041F000C068D7490968884202D10420FEF744FA12
:10420000D1480068C068D3490968884202D10320B8
:10421000FEF73AFACC480068C068CF49096888427E
:1042200002D10220FEF730FA012C7DD0022C7CD086
:10423000042C7BD10120FCF7F1F9C3480068C06869
:10424000C249096888421BD1C4484079092803D172
:104250000020C249487104E0C0484079401CBF4971
:104260004871BE494879FEF721F9BDA0FEF7E6F88E
:10427000BA4948790021FEF7ECF8BDA0FEF7DEF858
:10428000B1480068C068B249096888421CD1B34887
:10429000407B092803D10021B048417305E0AF48B5
:1042A000407B401CC1B2AD484173AC49487BFEF72E
:1042B000FDF8ABA0FEF7C2F8A849487B0021FEF745
:1042C000C8F8B0A0FEF7BAF89F480068C068A149D6
:1042D000096888421CD1A148407D092803D10021EA
:1042E0009E48417505E09D48407D401CC1B29B48F9
:1042F00041759A49487DFEF7D9F899A0FEF79EF8D6
:104300009649487D0021FEF7A4F8A3A0FEF796F891
:104310008D480068C06890490968884220D18F485C
:10432000407F092807D102E01BE07BE009E1002182
:104330008A48417705E08948407F401CC1B28748E0
:1043400041778649487FFEF7B1F885A0FEF776F8F9
:104350008249487F0021FEF77CF894A0FEF76EF8B2
:10436000EFE00120FCF75AF9FEF702F907208DF87B
:10437000040075480068C0687449096888420CD117
:10438000764840798DF805000F2074490090C8796F
:104390000F23022201A9FDF757FC6B480068C06893
:1043A0006B49096888420CD16C48407B8DF8050048
:1043B0000F206A490090C87B0F23022201A9FDF754
:1043C00043FC61480068C0686249096888420CD1B2
:1043D0006248407D8DF805000F2060490090C87D3F
:1043E0000F23022201A9FDF72FFC57480068C0687F
:1043F0005949096888420CD15848407F8DF805001A
:104400000F2056490090C87F0F23022201A9FDF713
:104410001BFC6BA0FEF712F84B48006800684A4985
:1044200008608EE00120FCF7F9F847480068C06892
:104430004649096888421AD14848407918B9092084
:104440004649487104E045484079401E4349487157
:1044500042494879FEF72AF841A0FDF7EFFF3F49AE
:1044600048790021FDF7F5FF41A0FDF7E7FF364849
:104470000068C0683649096888421BD13748407BCC
:1044800018B909213548417305E03448407B401E86
:10449000C1B2324841733149487BFEF707F830A07A
:1044A000FDF7CCFF2D49487B0021FDF7D2FF35A059
:1044B000FDF7C4FF24480068C0682649096888429F
:1044C0001BD12648407D18B909212448417505E0D3
:1044D0002248407D401EC1B2204841751F49487D99
:1044E000FDF7E4FF1EA0FDF7A9FF1C49487D002150
:1044F000FDF7AFFF28A0FDF7A1FF13480068C068D3
:104500001549096888421BD11448407F18B9092110
:104510001248417705E01148407F401EC1B20F4864
:1045200041770E49487FFDF7C1FF0DA0FDF786FFDB
:104530000A49487F0021FDF78CFF1CA0FDF77EFF94
:1045400000BF00BF1CBD0000C00100209C01002076
:10455000A0010020A4010020A801002040080020A4
:1045600009416C61726D2074656D706F20230000CD
:1045700020666F72202331207379676E616C6C65E1
:10458000722E0A0020666F72202332207379676EC4
:10459000616C6C65722E0A0020666F7220233320D6
:1045A0007379676E616C6C65722E0A0020666F729B
:1045B000202334207379676E616C6C65722E0A005B
:1045C0002D312D204C454420636F6C6F7220736534
:1045D0007474696E67206D6F64652E0A00000000B8
:1045E00010B504460520FEF74FF8012C15D0022C1B
:1045F00025D0042C42D1FEF71DF80120FCF70EF85F
:104600001F490968087CFEF72FF81EA0FDF716FF6A
:10461000214800682149086030E0FEF70BF80120CE
:10462000FBF7FCFF1D480068FCF740FD1CA0FDF7F0
:1046300005FF1A4800688068184908601EE0FDF709
:10464000F9FF0120FBF7EAFF0D490968087CFEF736
:104650000BF81B480078012808DD10480068006846
:104660000E49086017A0FDF7E9FE06E00A48006859
:104670000A49086003A0FDF7E1FE00BF00BF10BDBE
:104680009C01002043656E7472616C20756E6974C4
:10469000206D656E752E0A0098010020C001002073
:1046A0002D312D204C454420636F6C6F7220736553
:1046B0007474696E67206D6F64652E0A00000000D7
:1046C000940100205379676E616C6C65722023320F
:1046D000206D656E752E0A0010B504460420FDF7A6
:1046E000D3FF012C15D0022C25D0042C42D101205F
:1046F000FBF794FFFDF79EFF1F490968087CFDF753
:10470000B3FF1EA0FDF79AFE21480068214908600A
:1047100030E0FDF78FFF0120FBF780FF1D480068A8
:10472000FCF7C4FC1CA0FDF789FE1A4800688068ED
:10473000184908601EE0FDF77DFF0120FBF76EFFC2
:104740000D490968087CFDF78FFF1B480078022897
:1047500008DD1048006800680E49086017A0FDF7E2
:104760006DFE06E01A4800680A49086019A0FDF7C6
:1047700065FE00BF00BF10BDA00100205379676E29
:10478000616C6C6572202331206D656E752E0A0098
:104790009C010020C00100202D312D204C454420DB
:1047A000636F6C6F722073657474696E67206D6FD0
:1047B00064652E0A00000000940100205379676EA2
:1047C000616C6C6572202333206D656E752E0A0056
:1047D0009801002043656E7472616C20756E697477
:1047E000206D656E752E0A0010B504460320FDF796
:1047F0004BFF012C15D0022C25D0042C42D1FDF703
:1048000019FF0120FBF70AFF1F490968087CFDF723
:104810002BFF1EA0FDF712FE214800682149086009
:1048200030E0FDF707FF0120FBF7F8FE1D480068A8
:10483000FCF73CFC1CA0FDF701FE1A4800688068EC
:10484000184908601EE0FDF7F5FE0120FBF7E6FEC3
:104850001D480078032808DD1248006800681149E7
:1048600008601AA0FDF7EAFD06E01D4800680D4942
:1048700008601CA0FDF7E2FD03490968087CFDF70C
:10488000F3FE00BF00BF10BDA40100205379676E86
:10489000616C6C6572202332206D656E752E0A0086
:1048A000A0010020C00100202D312D204C454420C6
:1048B000636F6C6F722073657474696E67206D6FBF
:1048C00064652E0A00000000940100205379676E91
:1048D000616C6C6572202334206D656E752E0A0044
:1048E0009801002043656E7472616C20756E697466
:1048F000206D656E752E0A0010B504460220FDF786
:10490000C3FE012C15D0022C25D0042C36D1FDF786
:1049100091FE0120FBF782FE19490968087CFDF72A
:10492000A3FE18A0FDF78AFD1B4800681B4908601C
:1049300024E0FDF77FFE0120FBF770FE17480068BA
:10494000FCF7B4FB16A0FDF779FD144800688068F9
:104950001249086012E0FDF76DFE0120FBF75EFED4
:1049600007490968087CFDF77FFE15A0FDF766FD85
:104970000A48006800680949086000BF00BF10BD10
:10498000A80100205379676E616C6C657220233337
:10499000206D656E752E0A00A4010020C001002064
:1049A0002D312D204C454420636F6C6F7220736550
:1049B0007474696E67206D6F64652E0A00000000D4
:1049C00043656E7472616C20756E6974206D656EDE
:1049D000752E0A0010B50446012C37D0022C39D0B0
:1049E000042C51D1FDF726FE0120FBF717FE2748C6
:1049F0000078052828D2DFE800F003070F171F0012
:104A000023A0FDF71BFD1FE026480068264908602B
:104A100026A0FDF713FD17E0294800682249086029
:104A200028A0FDF70BFD0FE02B4800681E49086029
:104A30002AA0FDF703FD07E02D4800681A49086029
:104A40002CA0FDF7FBFC00BF00BF1DE00120FBF721
:104A5000E5FD19E0FDF7EEFD0120FBF7DFFD0B485A
:104A60000078002808DD1048006800680E490860DA
:104A70000EA0FDF7E3FC06E0234800680A49086041
:104A800003A0FDF7DBFC00BF00BF10BD94010020B8
:104A900043656E7472616C20756E6974206D656E0D
:104AA000752E0A009C010020C00100205379676E1A
:104AB000616C6C6572202331206D656E752E0A0065
:104AC000A00100205379676E616C6C6572202332FF
:104AD000206D656E752E0A00A40100205379676E63
:104AE000616C6C6572202333206D656E752E0A0033
:104AF000A80100205379676E616C6C6572202334C5
:104B0000206D656E752E0A0098010020010900F0E5
:104B10000F0241EA021000F0CC01891000F03302CC
:104B200041EA820000F0AA01491000F0550241EA72
:104B30004200704710B591EA030F48BF83F000436D
:104B400000F15282841A71EB030C05D2121943EB67
:104B50000C03001B61EB0C01DFF824E14FEA115458
:104B6000A4EB135C1EEA430F18BF9EEA445F73D0A8
:104B700023EA0E03DCF1200E21EA045143F48013F2
:104B800032D322FA0CFE10EB0E0023FA0CFE41EB9E
:104B90000E01CCF1200E03FA0EFE10EB0E0051F1C7
:104BA0000001B1F5801FCCF1200E32D201EB04518F
:104BB00012FA0EF2BDE8104058BF7047401C38BFD3
:104BC0005FEA420218BF7047002814BF20F00100BE
:104BD00041F100014FEA410313F5001F38BF704750
:104BE000A1F1C04100F0E6B9012A43EB0302ACF1A8
:104BF000200CDCF11F0E32BF4FF0000E23FA0CF335
:104C000010EB030041EB0451B4EB115FD0D0A1EBEA
:104C1000045101F5801149085FEA300001EB0451AD
:104C20000ED350F1000038BF12FA0EFE08D1BDE8D5
:104C30001040C9E7401C38BF5FEA4202CAD1C3E74F
:104C4000BDE810404FEA410313F5001F38BF70471D
:104C5000A1F1C04100F0AEB99EEA445F08D011EA6C
:104C60005E0FBDE8104004BF01F000410020704716
:104C7000BDE8104070B500F04FF900BF64FBBE3EC8
:104C80000000E0FF491058BFC1F140415B1058BF20
:104C9000C3F140438B42EFF3008070474FEA11535A
:104CA000A3F58063D3F11E03A8BFD3F1200C08DB6A
:104CB0004FF0004242EAC12252EA505232FA03F067
:104CC000704709420BD4102BC4BF0020704703F576
:104CD000787CBCF1FF3F05D04FF0FF3070474FF0BC
:104CE0000000704770B500F017F900BF49922480AA
:104CF00000207047F0E710F0004248BF4042B0FA91
:104D000080F310FA03F10AD0C3F11D0303F58063A9
:104D10004FEA415002EB035202EBD12170474FF0B2
:104D200000007047B0FA80F310FA03F10AD0C3F123
:104D30001D0303F580634FEA41504FEA035202EB33
:104D4000D12170474FF000007047000051EA030C7A
:104D500017D41CF5801F58BFBCF5801F00F10680DA
:104D6000994218BF704708BF9042704707D711F5A6
:104D7000801F58BF13F5801F19D49942704789428C
:104D800070471CF5801F08D5BCF5801FF7D58B42F6
:104D900018BF704708BF824270474FF4001C1CEBDD
:104DA000410F38BF1CEB430F01D28B42704770B5E7
:104DB00000F0B2F8922449004FF000514FF08053B8
:104DC000FFF760BFDFF848C170B51CEA111E1EBFB7
:104DD0001CEA13159EEA0C0F95EA0C0F00F06F8089
:104DE00081EA030423EA4C134EEAD47E21EA4C11F3
:104DF00041F4801143F48013AE44A1FB024CA0FBAC
:104E00000365AEF17F7E361955EB0C05A1FB034C13
:104E10004CF10003A0FB021C16EB0C06654153F19C
:104E20000003094218BF46F0010613F4007F0BD1BE
:104E30004FEA03314FEA0530340341EA155140EAA5
:104E400016506FF003020AE04FEAC3214FEAC52073
:104E5000F40241EA555140EA56506FF0020202EB6B
:104E60002E4201EB025585EACE710AD05FEA440C6E
:104E700018BF24F0004450F1000041F1000120EA85
:104E8000D47040F2FE7C624500D270BDA84214BFCF
:104E90004FF080444FF04044002E08BF0024BEF184
:104EA000806FA8BFA1F1C041BDE8704080F2828050
:104EB0004FF0000001F1C04101F0004170479EEA4F
:104EC0000C0F0CEA131518BF95EA0C0F06D04FF023
:104ED000000081EA030E0EF0004170BD00F01CF8E6
:104EE0008900013E00F007B800F009B84FEA430C12
:104EF0005FEA5C5C08D081EA030100F05BB84FEA2E
:104F0000410C5FEA5C5CF6D14FF00000014970474C
:104F10000000FF070000F87F0EF1020E2EF0030ED6
:104F20005EF8046B364205D4012A43EB030515F500
:104F3000001F12D8012841EB010C1CF5001F0CD8F2
:104F40000ED14FEAD17C15F5001F0CEB4C0C0CF187
:104F5000020C08BF4CEBD37C04E04FF0080C01E0DE
:104F60004FEAD37C0CEB4C0526FA05F606F0070653
:104F7000B6F1040C06D20EEB860CBDE870404CF086
:104F8000010C6047DFE80CF0090B02024FF0004112
:104F90004FF00000A1F5002170BD19461046012810
:104FA00051EB010418BFD4F5001484BF002001F0B8
:104FB000004170BD0808A0F500114FEA31017047AB
:104FC00091EA030F10B581F000413FF5BBAD83F0CE
:104FD000004300F009B8000010B591EA030F48BF84
:104FE00083F000433FF5AEAD841A71EB030C07D29A
:104FF00012198CF0004C43EB0C03001B61EB0C010D
:10500000DFF8A4E14FEA1154A4EB135C1EEA430F4E
:1050100018BF9EEA445F00F0B08023EA6E0352425C
:1050200021EA0451C3EB6E0338BF5B1EDCF1200E96
:1050300025D322FA0CFE10EB0E0043FA0CFE41EBD6
:105040000E01CCF1200E03FA0EFE10EB0E0051F112
:105050000001CCF1200E29D412FA0EF201EB04511A
:10506000BDE8104058BF7047401C1CBFB2F1004F54
:10507000704700280CBF491C20F00100704712EB5C
:10508000020E43EB030218BF4FF0010E4EEA42023C
:10509000ACF1200CDCF11E0E54D943FA0CFE10EBDF
:1050A0000E0051F1FF31CCF11E0ED5D50EF1010EDF
:1050B00012FA0EFE404141EB010101EB445C5FEA54
:1050C0005C5C10D910EBDE7001EB045138BFBEF10F
:1050D000004FBDE8104018BF704700280CBF491CA6
:1050E00020F00100704730D24FEAD42C11F50011A6
:1050F00024F400641BD0B1FA81F20B3AA41AA41E66
:10510000D2F12003914030FA03F31943904001EBB0
:10511000CC71002C01EB0451BDE81040A8BF7047D2
:1051200001F1C0414FF0000001F000417047B0FABA
:1051300080F310FA03F100D110BDE41A173C4805C2
:10514000C90AE4E701EB045110BD491001EB045119
:10515000BDE810404FEA300002E04FF00001704718
:105160004A0008BF0042F8D0B2F5001F28BF7047C0
:1051700001F000414FF0000070479EEA445F07D005
:1051800011EA5E0FBDE8104004BF00210020704707
:10519000BDE8104070B5FFF7BFFE00BF40DFF63E30
:1051A00083F00041104670470000E0FF000000005F
:1051B000000000000000E03F9A9999999999A93F51
:1051C0007B14AE47E17A743FFCA9F1D24D62403FB7
:1051D0002D431CEBE2360A3FF168E388B5F8D43E74
:1051E0008DEDB5A0F7C6A03E48AFBC9AF2D76A3E97
:1051F00003006400320032000A000A000A000A00BC
:105200000A000300000000002852000800000020EF
:10521000CC01000030010008F0520008CC01002051
:10522000F40C00008C01000811800D48E801030413
:1052300006080C101820301B010213A407080910DF
:105240000D404A454F4A544F59545E596316313206
:105250003435FF126412C818122C019001F4015861
:1052600002BC0220038403E80364121FF401BC02A1
:10527000FFFF311363FF12FA1CE803FA066902C943
:105280000E49101AF4320D10E204F40120091A2E0E
:1052900014FFFF5412541A59042179081C596368E9
:1052A0000909121713FF3E89021AE8AA127C290283
:1052B0000D10E803F4010AA92C14FFFF6329026F03
:1052C0005440454A4F31054B454F1612FF041D040B
:1052D000080C13F0512A0804C17A64041D64646444
:1052E0003705290A1F050F1923374B17023901000B
:04000005080001D915
:00000001FF
