:020000040800F2
:10000000C00E0020D9010008E1010008E30100084A
:10001000E5010008E7010008E90100080000000010
:10002000000000000000000000000000EB010008DC
:10003000ED01000800000000EF0100084D1D000860
:10004000F3010008F3010008F3010008F3010008C0
:10005000F3010008F3010008F3010008F3010008B0
:10006000F3010008F3010008F3010008F3010008A0
:10007000D5060008F3010008F3010008F3010008A9
:10008000F3010008F3010008F3010008F301000880
:10009000F3010008F3010008F3010008F301000870
:1000A000F3010008F3010008E91D0008F30100084E
:1000B000F3010008251E0008F3010008F301000801
:1000C000F3010008F3010008F3010008DD1A00083D
:1000D000F3010008C91F0008F3010008F30100083C
:1000E00019070008F3010008F3010008F3010008F4
:1000F000F301000800F002F800F05EF80AA090E8B2
:10010000000C82448344AAF10107DA4501D100F0D2
:1001100053F8AFF2090EBAE80F0013F0010F18BF41
:10012000FB1A43F00103184710450000304500005A
:100130000A444FF0000C10F8013B13F0070408BF0D
:1001400010F8014B1D1108BF10F8015B641E05D0AB
:1001500010F8016B641E01F8016BF9D113F0080F60
:100160001EBF10F8014BAD1C0C1B09D16D1E58BFF2
:1001700001F801CBFAD505E014F8016B01F8016B29
:100180006D1EF9D59142D6D370470000002300249C
:1001900000250026103A28BF78C1FBD8520728BF97
:1001A00030C148BF0B6070471FB59DE8030000F0E9
:1001B00081F81FBD10B510BD00F000F91146FFF722
:1001C000F3FF02F073FC00F01EF903B4FFF7F2FF37
:1001D00003BC00F04BF9000009488047094800477C
:1001E000FEE7FEE7FEE7FEE7FEE7FEE7FEE7FEE7E7
:1001F000FEE7FEE704480549054A064B7047000044
:10020000811D0008F5000008C0080020C00E002075
:10021000C00A0020C00A002070B5064600F02EF883
:10022000056806F10B0020F00704B4429CBF0020D3
:1002300070BD2B466A68BAB11068A04210D304F1B1
:10024000080188423CBF5068586007D351681019B4
:1002500041601168091B016058601460101D70BD79
:1002600013465268002AE7D12146284600F00EF8CE
:100270000028DED170BD7047704770470048704756
:1002800064080020704770477047704738B50446CF
:100290000A4600206946AFF30080002808BF38BD39
:1002A00002460099204600F067F8012038BD012081
:1002B00000F07CB8F8B5AFF30080054600200C468E
:1002C000102000BF0646A819A0420DD93246694643
:1002D0000020AFF30080070008BF00F067F8009827
:1002E000A04218BF0546C419FFF7C8FF05600746BE
:1002F000F01D20F007004619284600F00AF8B44225
:1003000008BFF8BDA21B31463868BDE8F84000F0D0
:1003100033B800210160C0E9011070471020704718
:1003200070B50446051FFFF7A9FF0068002C14BF35
:10033000446870BD002C18BFAC423CBF20466468C6
:10034000F8D301680A18AA4218BF456003D12A6889
:1003500005461144016028684119A1421CBF6C6028
:1003600070BD6168696021680844286070BD000044
:10037000004870475C080020034640688C4600280F
:1003800018BF88423CBF03464068F8D31868184439
:10039000884207D00CF1030020F00700001D411A2D
:1003A000521A0146081D0A60FFF7BABF10B500F0E7
:1003B00035F8BDE8104000F02CB870477546FFF7DF
:1003C000D7FFAE4605006946534620F00700854634
:1003D00018B020B5FFF70EFFBDE820404FF0000633
:1003E0004FF000074FF000084FF0000B21F007011D
:1003F000AC46ACE8C009ACE8C009ACE8C009ACE860
:10040000C0098D4670470446AFF300802046FFF7D1
:10041000DCFE002801D000F029B8704710B5012893
:1004200005D0002103A000F027F8012010BD09A18C
:10043000F8E7000053494752544D454D3A204F7557
:1004400074206F662068656170206D656D6F7279CC
:10045000000000003A2048656170206D656D6F7284
:100460007920636F72727570746564000149182099
:10047000ABBEFEE72600020070B505460C460A201A
:1004800000E06D1C00F011F835B128780028F8D193
:1004900002E0641C00F009F814B120780028F8D1BB
:1004A000BDE870400A20AFF3008008B569468DF8BA
:1004B00000000320ABBE08BD0F48006840F00200FA
:1004C0000D4908600D48006840F000600B49086065
:1004D000081D008820F40050091D0880081D0068D0
:1004E00040F04060091D08600448406A40F4401133
:1004F00002484162704700001C380240000402407C
:100500001E48006840F004001C4908601C48008830
:1005100040F2F23188431A4908800846008840F0CA
:100520004400088016481830008840F070001449D4
:100530001831088012482030008840F0030010492C
:100540002031088063200E49283108800020091DD1
:1005500008600B49343108600949243108600848B3
:100560001430008840F00100054914310880081F4C
:10057000008820F00100091F0880704720380240E1
:100580000008014009480A4908600A4848600A48CA
:1005900088600A490648C160094805490861094957
:1005A00003484161FF200249487670474E00002011
:1005B000C8010020580000205E000020BA00002082
:1005C000E800002022010020002011490870114994
:1005D00008601049083108600E4910310860012098
:1005E0000D49086000200C49083908600948243882
:1005F000008820F0010007492439088006482C387B
:10060000008820F0010004492C3908807047000060
:1006100026000020240801402C04004000B50246BA
:1006200000F09AF90A49086000200A4908600A495E
:1006300008600A4908600A4908700A48006800888A
:100640000949086012B101200849087000BD000086
:1006500050010020440100204C01002048010020EE
:10066000580100205C0100205401002059010020A5
:100670000848006840F00100064908600648006824
:1006800040F44070044908600846806840F44070B7
:10069000886070471C380240000002400B48006828
:1006A00040F00050094908600948006820F0060041
:1006B00007490860002006491031086004480068B6
:1006C00040F00100024908607047000024380240F1
:1006D000007400400D48006800F02000A8B10B48ED
:1006E000406840F01000094948600020084908703F
:1006F0004FF08040008A20F001004FF080410882D6
:100700000846008820F00100088070470060024021
:100710008C0100207047000010B51B48006800F4F1
:10072000005000282FD000220121104600F020FDAB
:10073000C4B204F01C000C2802D114A001F0C0FCCB
:1007400004F01C00102818D100F0D8FE00F032FF91
:1007500000F008FE114890F8410018B10021084649
:1007600000F0ACFF0D4890F8420020B900F0AAF963
:100770000BA001F0A5FC00F0E9FE0348006840F47E
:1007800000500149086010BD140401405061636BC2
:1007900065742073656E742E0A0000000A04002040
:1007A000496E7465727072617465732061733A0A80
:1007B000000000002DE9F0430546DDE90767099CCC
:1007C0000A2D04D00B2D0ED00C2D24D117E0DFF80C
:1007D00078C1DCF800C04CF0010CDFF86C81C8F87F
:1007E00000C05A4817E0DFF860C1DCF800C04CF0E8
:1007F000020CDFF85481C8F800C055480BE0DFF860
:1008000048C1DCF800C04CF0040CDFF83C81C8F8AB
:1008100000C0504800BF00BFD0F800C04FEA4109F7
:100820004FF0030808FA09F82CEA080CC0F800C0D9
:10083000D0F80CC04FEA41094FF0030808FA09F854
:100840002CEA080CC0F80CC0D0F800C04FEA4108F0
:1008500002FA08F84CEA080CC0F800C0012A03D0DC
:10086000022A01D0002A6CD1D0F80CC04FEA41080E
:1008700003FA08F84CEA080CC0F80CC0012A01D0B1
:10088000022A5ED1B0F804C04FEA41094FF00108D6
:1008900008FA09F82CEA080CA0F804C0D0F808C03F
:1008A0004FEA41094FF0030808FA09F82CEA080C4E
:1008B000C0F808C0B0F804C006FA01F84CEA080C09
:1008C000A0F804C0D0F808C04FEA410807FA08F8B9
:1008D0004CEA080CC0F808C0022A32D1082916DAFE
:1008E000D0F820C04FEA81094FF00F0808FA09F844
:1008F0002CEA080CC0F820C0D0F820C04FEA8108CC
:1009000004FA08F84CEA080CC0F820C019E0D0F846
:1009100024C0A1F108084FEA88094FF00F0808FA2F
:1009200009F82CEA080CC0F824C0D0F824C0A1F1C2
:1009300008084FEA880804FA08F84CEA080CC0F8DE
:1009400024C0BDE8F08300001C38024000000240D3
:1009500000040240000802400748008A00F001003D
:100960000549098A01F0020108430349098A01F097
:100970000401084370470000000002400648006878
:1009800038B105480068401E034908600348006804
:1009900070470020FCE700004801002044010020CF
:1009A0000EB51248006840F00100104908600020B0
:1009B0000090019003460246014602900A20FFF78C
:1009C000F9FE0020009001900346024601210290AA
:1009D0000A20FFF7EFFE0020009001900346024638
:1009E000022102900A20FFF7E5FE0EBD1C380240EE
:1009F00000B5FFF7B1FF034620480068984203D0D6
:100A00000020FFF70BFE00BD13B11D48007820B198
:100A100013B900201A490870F5E71A480068401C0D
:100A200018490860184803600846006817490968B3
:100A3000884220D316480068401C154908601548B4
:100A40000068154908600846016814480078401C91
:100A500031F8100020B111480078401C0F4908708F
:100A60000D4800680D49097830F8110007490968F8
:100A700008440649086000BFC5E700005001002097
:100A8000590100204C0100204401002054010020A5
:100A900048010020600100205C0100205801002076
:100AA000F0B500241D0245EA024545EA010400268E
:100AB000451E034F47F825603E4646F82540F0BDE9
:100AC000900300207047000010B51820FFF7A4FB2A
:100AD000814908601820FFF79FFB804908601820B3
:100AE000FFF79AFB7E4908601820FFF795FB7D49C8
:100AF00008601820FFF790FB7B4908601820FFF77B
:100B00008BFB7A4908601820FFF786FB784908605C
:100B10001820FFF781FB774908601820FFF77CFB5E
:100B2000754908601820FFF777FB744908606B4827
:100B3000006869490968086071486749096848613F
:100B40006748006865490968086064480068634947
:100B50000968C86065480068604909688860694834
:100B60005E490968486105205C49096808745D4868
:100B700000685B4909680860594800685849096875
:100B8000C8605A4800685649096888605E485449F8
:100B9000096848610420524909680874524800688D
:100BA0005049096808604F4800684E490968C860A4
:100BB0004E4800684B4909688860544849490968AB
:100BC000486103204749096808744348006846495A
:100BD000096808604448006843490968C860434898
:100BE000006841490968886049483F490968486187
:100BF00002203D49096808743D4800683B4909687E
:100C00000860002039490968C860424837490968C6
:100C100048610120354909680874344909684874F5
:100C20003448006832490968086000203049096882
:100C3000C86039482E490968486101202B49096874
:100C400048742B49096808740220294909684874C6
:100C50002948006827490968086000202549096873
:100C6000C8602E4823490968486101202149096864
:100C7000087403201F4909684874204800681E4909
:100C80000968086000201C490968C86024481A499E
:100C90000968486101201849096808740420164948
:100CA0000968487411480068144909680860002000
:100CB00012490968C8601B48104909684861012049
:100CC0000E490968087405200C49096848740248EF
:100CD00000681549086010BD9401002098010020AB
:100CE0009C010020A0010020A4010020A8010020F8
:100CF000AC010020B0010020B4010020B8010020A8
:100D0000913E00083D3C0008D53C0008713D0008BC
:100D10000D3E0008C12D0008B130000891330008D5
:100D20007536000859390008BC01002007490968D8
:100D3000C86007490968C86006490968C86006496B
:100D40000968C86005490968C8607047A8010020A3
:100D5000AC010020B0010020B4010020B801002047
:100D600000F01F02012191404209920002F1E022AD
:100D7000C2F800117047000010B504460B4890F807
:100D80003E00A0420FD1094890F8420058B108A097
:100D900001F096F90021204601F09DF909A001F02B
:100DA0008FF9012010BD0020FCE700000A0400209C
:100DB00041434B5F72656365697665642066726F57
:100DC0006D3A20000A0000000EB52548006840F08A
:100DD000030023490860002000900190034601228F
:100DE000092102900A20FFF7E5FC052001210022DD
:100DF0001346CDE900210290022203210B20FFF7C8
:100E0000D9FC0520012100221346CDE900210290E2
:100E1000022201460B20FFF7CDFC05200121002214
:100E20000B46CDE900210290022204210B20FFF79E
:100E3000C1FC002000900190034601220F21029086
:100E40000A20FFF7B7FC0748808A40F400400549B4
:100E500088820548008820F04000034908800EBDC4
:100E60001C38024000000240003001403EB500F056
:100E7000C1FB00BFAA222F21012000F079F9002236
:100E80002F21104600F074F9AA28F3D100BF552293
:100E90002F21012000F06CF900222F21104600F0D4
:100EA00067F95528F3D100220121104600F060F9BE
:100EB00004220121084600F05BF9002201211046BE
:100EC00000F056F900220221012000F051F902221F
:100ED0000321012000F04CF940220421012000F000
:100EE00047F903220521012000F042F933220621AF
:100EF000012000F03DF9D9220721012000F038F946
:100F000000220821012000F033F9002209210120EC
:100F100000F02EF942221921012000F029F9522275
:100F20002521012000F024F977222621012000F05C
:100F30001FF9002000900190012302460D2102902C
:100F40000C20FFF737FC6148006840F001005F4962
:100F500008605F48406940F020015D4841615D489C
:100F6000006840F400505B4908605A480830006847
:100F700040F400505749083108602820012100281A
:100F800007DA0A07140E544A00F00F031B1FD4544B
:100F900003E00A07130E514A135400BF282000F043
:100FA0001F02012191404209920002F1E022C2F8A1
:100FB000001100BF002000900190012302460B2188
:100FC00002900846FFF7F6FB0020009001900123F5
:100FD00002460C2102900B20FFF7ECFB0020009052
:100FE0000190012302460E2102900B20FFF7E2FB45
:100FF000002000900190012302460F2102900B2057
:10100000FFF7D8FB00200090019001230246082141
:1010100002900A20FFF7CEFB10222821012000F0C9
:10102000A7F8DC222921012000F0A2F888222E2135
:10103000012000F09DF82D222F21012000F098F8CA
:1010400064223021012000F093F890223721012002
:1010500000F08EF842223821012000F089F88F221A
:101060003C21012000F084F812223D21012000F0F3
:101070007FF830226F21012000F07AF818A000F0EC
:101080002DF90F221321012000F072F89F22112167
:10109000012000F06DF8012000F0C2FC98220D2123
:1010A000012000F065F818220E21012000F060F800
:1010B0009C220F21012000F05BF801200D4981F8EE
:1010C000460000F043FA01203EBD000020380240F7
:1010D000000001400004014018ED00E000E400E0E1
:1010E00046697368696E674D6F6E737465727321BC
:1010F000000000000A0400200648006840F4805008
:10110000044908600448008840F624310843024935
:101110000880704720380240003001401349098898
:1011200021F40061114A118000BF1049098901F0C2
:1011300080010029F9D10D49888100BF0B49098937
:1011400001F001010029F9D008498989C8B200BF1E
:101150000649098901F080010029F9D1034909886C
:1011600041F40061014A11807047000000300140E5
:1011700010B5034613B1012B7ED146E043480088E9
:1011800040F04000414C20804148808A20F40040DB
:101190003F4CA0823D488089C2B200BF3B480089D5
:1011A00000F002000028F9D000BF3848008900F0A4
:1011B00080000028F9D140EA0120344CA08100BF12
:1011C0003248008900F002000028F9D000BF2F4803
:1011D000008900F001000028F9D02C488089C2B2B3
:1011E00000BF2A48008900F080000028F9D1284873
:1011F000808A40F40040264CA0822448008820F0D9
:101200004000224C2080104610BD2048008840F04D
:1012100040001E4C20801E48808A20F400401C4C58
:10122000A08200BF1948008900F002000028F9D010
:1012300000BF1648008900F080000028F9D141F075
:10124000800042EA0020114CA08100BF0F480089B5
:1012500000F002000028F9D000BF0C48008900F01F
:1012600080000028F9D10A48808A40F40040084CE8
:10127000A0820648008800E004E020F04000034C13
:10128000208000BF00BF00BFBEE70000003001406B
:101290000000024070B504460D460022214610466B
:1012A000FFF766FF2843C6B2324621460120FFF70A
:1012B0005FFF70BD00B5002201211046FFF758FF07
:1012C00000F01000102807D0002000F057F910F1AE
:1012D0005A0F01DA012000BD0020FCE730B50446BA
:1012E000012000F09DFB44B31848008840F0400006
:1012F000164908801648808A20F4004014498882E4
:10130000BE20FFF70BFF002504E0605DFFF706FF3E
:10131000681CC5B2102DF8DB0D48808A40F40040EF
:101320000B4988820948008820F04000074908805E
:101330000846008820F0400008800CB1012000E041
:10134000002001463D20FFF7A5FF30BD00300140E1
:101350000000024010B5FFF737FDFFF7CDFEFFF7A5
:1013600085FD10BD70B54A48008840F040004849EE
:1013700008804848808A20F400404649888200203E
:10138000FFF7CCFE0020FFF7C9FE434981F840007B
:101390000020FFF7C3FE404981F83F00084690F85F
:1013A0004000C01E81F83D000020FFF7B7FE3A491B
:1013B00081F83E000020FFF7B1FE054605F08000F1
:1013C000354981F8420005F0400081F841000024D1
:1013D00006E00020FFF7A2FE2F490855601CC4B2AA
:1013E0002D4890F83D00A042F3DC2B4890F83D00DA
:1013F0003D2805DA0020284991F83D10264A50542E
:101400002448808A40F4004022498882204800888D
:1014100020F040001E490880002000F0AFF81E496F
:10142000A1F844001DA000F04BFE1B4991F83E00BE
:10143000002100F050FE1FA000F042FE164991F876
:101440003F00002100F047FE1CA000F039FE1249C9
:1014500091F83D00002100F03EFE1AA000F030FEA1
:101460000D49B1F94400002100F035FE18A000F04C
:1014700027FE094890F8420010B117A000F020FEA6
:10148000054890F8410010B117A000F019FE70BD9A
:1014900000300140000002400A0400205061636BEC
:1014A00065742072656365697665642066726F6D28
:1014B0003A20000020746F3A200000002077697401
:1014C0006820000020627974657320616E642000DA
:1014D00020525353492E200041434B2072656365CF
:1014E000697665642E0A000049742072657175651D
:1014F0007374732041434B2E0A00000010B5242260
:1015000001210846FFF734FE042201210846FFF7B7
:101510002FFE04E0042201210846FFF729FE0022E5
:1015200001211046FFF724FE00F01C000428F1D131
:1015300001A000F0C5FD10BD4C697374656E206D8F
:101540006F6465204F46462E0A00000010B501204A
:1015500000F066FA402201210846FFF709FE02A0CA
:1015600000F0AEFD10BD00004C697374656E206D17
:101570006F6465204F4E2E0A0000000030B504460F
:1015800000256CB101212320FFF784FE00BF00225B
:1015900023211046FFF7ECFD00F002000028F6D0F2
:1015A000002224211046FFF7E3FD404205B26D10F2
:1015B000284630BD00B500200D4981F83D0081F876
:1015C0003E0081F83F0081F8400081F8410081F839
:1015D0004200A1F84400002228211046FFF7C8FD70
:1015E00000F0040018B104213D20FFF753FE00BDB8
:1015F0000A0400203EB5002000900190034601221D
:10160000092102900A20FFF7D5F81448808A40F497
:101610000070124988820021084600F0F5FA04465D
:1016200000BF2146012000F0EFFA0028F9D00B4856
:10163000808A20F40070094988820021084600F061
:10164000E3FA044600BF2146012000F0DDFA052838
:10165000F9D303A000F034FD3EBD000000000240BD
:1016600052464D36395720726573657420646F6E2B
:10167000652E0A002DE9F84304460D4616461F461E
:1016800004213D20FFF706FE0021084600F0BCFAC9
:10169000804600BFFFF70EFE30B94146012000F042
:1016A000B3FAB0F57A7FF5D300203B46324629469F
:1016B0000090204600F030F8BDE8F883F8B5044605
:1016C0000D460F4890F83E60B0F9447004213D206B
:1016D000FFF7E0FD012000232A4621460090304616
:1016E00000F01AF807A000F0EBFC0021304600F0F3
:1016F000F2FC08A000F0E4FC0148A0F84470F8BD3A
:101700000A04002041434B5F73656E7420746F3A86
:10171000200000000A0000002DE9F84F83468946AA
:1017200014461E46DDF828A0012000F079F90021BA
:10173000084600F00FF93D2C00DD3D24BAF1000F02
:1017400001D0802701E006B140274048008840F0E2
:1017500040003E4908803E48808A20F400403C49D1
:1017600088828020FFF7DAFCE11CC8B2FFF7D6FCC4
:101770005846FFF7D3FC374991F84600FFF7CEFCF7
:101780003846FFF7CBFC002505E019F80500FFF708
:10179000C5FC681CC5B2A542F7DB2D48808A40F421
:1017A00000402B4988822948008820F040002749C2
:1017B0000880042000F034F90021084600F024FAE3
:1017C000009000BF2448008800F4005030B9012088
:1017D000009900F019FAB0F57A7FF3D31E4800881B
:1017E00000F40050002826D01CA000F069FC002165
:1017F000584600F070FC1EA000F062FC154991F8FC
:101800004600002100F067FC1BA000F059FC0021FD
:10181000204600F060FC1AA000F052FCBAF1000F64
:1018200002D01AA000F04CFC16B11CA000F048FC3D
:101830004FF0010804E01EA000F042FC4FF0000849
:10184000012000F0EDF84046BDE8F88F003001407F
:10185000000002400A040020100802405061636B3F
:1018600065742073656E7420746F3A200000000068
:101870002066726F6D3A200020776974682000003E
:101880002062797465732E20000000004974207373
:10189000656E64732041434B2E0A00004974207228
:1018A000657175657374732041434B2E0A00000007
:1018B0005061636B65742073656E64696E67207434
:1018C000696D6564206F75742E0A00002DE9F0477C
:1018D00006460F4690461C46DDF82090FFF70EFEA8
:1018E000012000F09DF800252BE0012342463946F7
:1018F0003046FFF7BFFE0020154981F84200032063
:1019000000F08EF84021002000F024F80021084665
:1019100000F07AF9824609E03046FFF72DFA28B147
:10192000012000F07DF80120BDE8F087514601203C
:1019300000F06AF94845EFD3012000F071F8681C07
:10194000C5B2A542D1DDFFF701FE0020ECE70000A3
:101950000A04002070B505460C46062D5ED2DFE86D
:1019600005F0031221303F4E002225211046FFF7DB
:10197000FFFB20F0C0002043C6B2324625210120E3
:10198000FFF7F6FB4AE0002225211046FFF7F0FBA7
:1019900020F030002043C6B2324625210120FFF757
:1019A000E7FB3BE0002225211046FFF7E1FB20F09A
:1019B0000C002043C6B2324625210120FFF7D8FB98
:1019C0002CE0002225211046FFF7D2FB20F0030077
:1019D0002043C6B2324625210120FFF7C9FB1DE096
:1019E000002226211046FFF7C3FB20F0C000204351
:1019F000C6B2324626210120FFF7BAFB0EE00022D4
:101A000026211046FFF7B4FB20F030002043C6B279
:101A1000324626210120FFF7ABFB00BF00BF70BD9F
:101A200030B50446052C4DD2DFE804F03F302112DA
:101A30000300002201211046FFF79AFB00F0E300AB
:101A400040F00C052A4601210846FFF791FB39E0DA
:101A5000002201211046FFF78BFB00F0E30040F06D
:101A600010052A4601210846FFF782FB2AE00022E2
:101A700001211046FFF77CFB00F0E30040F0080571
:101A80002A4601210846FFF773FB1BE000220121D3
:101A90001046FFF76DFB20F01C00001DC5B22A4662
:101AA00001210846FFF764FB0CE0002201211046EB
:101AB000FFF75EFB00F0E3052A4601210846FFF729
:101AC00057FB00BF00BF00BF2CB90348008A00F4D9
:101AD00080700028F8D030BD0000024033490989E9
:101AE00001F0010100295FD0304988893049898A95
:101AF00041F400412E4A91822C49098821F040018D
:101B00002A4A11802B4991F850102A4A02EB810190
:101B10008978114691F85010491C142903D10021ED
:101B200082F8501006E0234991F85010491C214AD0
:101B300082F850101F4991F850101E4A92F8512017
:101B400091421DD100BF1949098901F08001002986
:101B5000F9D11749898A41F40041154A9182134904
:101B6000098821F04001114A11801146098821F0AD
:101B7000400111801146898821F04001918013E0D5
:101B80000A49098841F04001084A11800849898AB8
:101B900021F40041064A9182064991F85010054A05
:101BA00032F82110014A9181704700000030014055
:101BB00000000240B803002010B54FF0E02000699B
:101BC00040F002004FF0E021086141F294104861BA
:101BD0000846006940F0010008614817012100280B
:101BE00007DA0A07140E064A00F00F031B1FD4542D
:101BF00003E00A07130E034A135400BF10BD000090
:101C000018ED00E000E400E0024612B90A4800685E
:101C10007047012A0DD108480068884203D306485E
:101C20000068401AF4E7C1F1FF30034B1B68184409
:101C3000EEE700BFECE70000C00100200CB500207B
:101C4000019000903E48006840F480303C490860B4
:101C500000BF3B48006800F4003000900198401C31
:101C60000190009818B90198B0F5A06FF1D13448EF
:101C7000006800F4003010B10120009001E0002065
:101C800000900098012859D12E48006840F00400C7
:101C90002C4908600846006840F0020008600846C9
:101CA000006840F00100086025482430006840F0DA
:101CB0008050234924310860C8142349086000BFBC
:101CC0002148406800F010000028F9D11C48083075
:101CD00000681B490831086008460068086008462B
:101CE000006808600846006820F47D000860084627
:101CF000006840F49A0008601148006840F0807065
:101D00000F49086000BF0E48006800F0007000280E
:101D1000F9D00B480830006820F00300084908316A
:101D200008600846006840F00300086000BF0448EF
:101D30000830006800F00C000C28F8D10CBD000041
:101D400000380240003C02400070004010B50A48D4
:101D50000068401C0849086008480078401C074992
:101D60000870084600780A2804D1FEF741FE0020DA
:101D70000249087010BD0000C0010020C40100200D
:101D800010B51548006840F4807013490860124887
:101D900008300068114908400F49083108600E48B2
:101DA00000680F4908400C4908600846006820F4A4
:101DB0008020086008480830006820F47D0006494B
:101DC000083108600020091D0860FFF737FF4FF059
:101DD00000600449086010BD003802400CC0FF8854
:101DE000FEFFFEEE08ED00E00B48008800F0010069
:101DF00080B10948008820F00100074908800120CF
:101E0000064908700648007808B9012000E0002063
:101E10000349087070470000100C01408D0100203C
:101E20006901002010B56248008800F00100002818
:101E30004CD05F48008820F001005D4908805D4873
:101E40000078142852D15C48007E5B4951F830007C
:101E500000884FF6FF71884239D00020574908604A
:101E60005548007E544901EBC00040680078534952
:101E700008310860504B1B7E4F4C04EBC303191D07
:101E80005868431C0B60027802EBD2735B104B4C1A
:101E900010342360484A127E474B03EBC2010868A6
:101EA000821C0A600288424B1C331A60404810387A
:101EB000008840F001003E49103908803F4824382E
:101EC000008840F001003D49243908806FE03A481D
:101ED000007E394951F8300000884FF6FF71884282
:101EE00065D1FEF74FFBFEF76FFB60E031480078ED
:101EF0000A2824D100203149086031488179801CAA
:101F000030F811002D49083108602D498A79891C63
:101F100031F8120000EBD0714910284A10321160DC
:101F200027488079C0F10100254988712048103880
:101F3000008840F001001E491039088037E01D4834
:101F400000781E2833D11F48807940B300201B49F8
:101F500008601C4800881949083108601949088838
:101F600000EBD0714910154A103211601548808875
:101F70000F491C31086011482438008840F00100E6
:101F80000E49243908800A481038008840F00100C2
:101F900007491039088000200A49887107E009487C
:101FA000807920B9012007498871FEF70DFB10BD2B
:101FB0001004004026000020C80100202408014031
:101FC000E40100201E0000201748008800F04000B7
:101FD00040B3164890F8E803401CB0F57A7F04D16E
:101FE0000020124981F8E80306E0104890F8E80361
:101FF000401C0E4981F8E8030C4890F8E8030B49AF
:1020000091F8E913884207D0084890F8E803074997
:10201000085C0549091D08800348008820F040003D
:102020000149088070470000003801405204002038
:102030000EB51948006840F0020017490860081DF5
:10204000006840F48040091D0860072000210091CD
:102050000B460222CDE9011006210B20FEF7AAFB58
:102060000720002100910B460222CDE90110014614
:102070000B20FEF79FFB094800684FF4E131B0FBED
:10208000F1F007490880081D008842F20C0108435E
:102090000349091D08800EBD1C38024000000020C5
:1020A0000838014000BF0549098801F08001002976
:1020B000F9D00249091D088070470000003801402E
:1020C00000B5024603E01078FFF7ECFF521C1078D1
:1020D0000028F8D100BD2DE9F04188B005460C4636
:1020E00084B9284602F036F80646002032460B46F0
:1020F000009001A800F0D0FA01A8FFF7E1FF08B0B6
:10210000BDE8F081022C10D1284600F089FB804602
:1021100002F009F80646002032460B46009001A85E
:1021200000F0BAFA01A8FFF7CBFF00BFE7E7000015
:1021300000B50246034830F8120003490880FEF754
:1021400043FA00BD3A000020E401002000B5024639
:10215000064810F8120006494880044800EB420087
:10216000417803488180FEF72FFA00BD2700002048
:10217000E40100200449095C044A118111460989DF
:10218000034A11607047000033000020E401002082
:10219000107400400A201249087012480089124940
:1021A000086010480088114908601148008800F054
:1021B00001000F49088020B90846008840F001005E
:1021C00008800A482C38008800F0010007492C39A3
:1021D000088020B90846008840F001000880704758
:1021E00026000020E4010020107400402C04004070
:1021F0000008014000B5FEF73BFAFEF74FFAFEF784
:102200005BF9FEF77DF92648006840F0020024499A
:1022100008602448008840F2F23188432149088050
:102220000846008840F00800088047F6FF401D4936
:10223000283108800120091D086000201949243137
:102240000860194988714F20184908803220488059
:10225000642088801D20012181404209920002F102
:10226000E022C2F8001100BF0E480C30008840F098
:1022700001000C490C3108800A481430008840F0F5
:102280000100084914310880081F008820F001006F
:10229000091F0880FEF798F9FEF774F900BD0000E9
:1022A0002438024000040040E40100201E00002009
:1022B00001200849887108464088074908601E20A7
:1022C000064908700648008840F00100044908806B
:1022D000704700001E0000201074004026000020FF
:1022E0000004004010B504461421601E034A115436
:1022F00000F0DEF800200249087010BD6A010020DD
:102300008D01002010B50446601E0F49085C14289A
:1023100007D10A21601E0C4A115401200B49087094
:1023200010E00A48007868B1601E0749085C0A2876
:1023300008D100200549087000F0BAF84FF4C870C1
:1023400000F0C8F810BD00006A0100208D010020D7
:102350002DE9F84F04460E464FF0000BDA460020F8
:10236000009000278046814635460CB9012402E0E2
:10237000052C00DD0524601E104951F82000C0F333
:102380000747601E51F8200000F0FF08601E51F85A
:102390002000C0F307297819C7B208EB050000F048
:1023A000FF0809EB050000F0FF094B463A4641469D
:1023B0002046FEF775FB5046BDE8F88F90030020DD
:1023C000F0B506460F4600240025012407E03A46F2
:1023D00031462046FFF7BCFF0544601CC4B2052C03
:1023E000F5DD0520B5FBF0F52846F0BD10B5044637
:1023F000044804700A210020FFF7E2FF00F080F893
:1024000010BD00006F01002010B504460249085DB0
:10241000FFF7ECFF10BD00008501002010B500247F
:1024200000F084FA00F0FEFA0A2000F00FFA00F043
:102430005DFA00BF0F4800780028FBD1142000F09F
:1024400005FA00F09DFA64200B490870002404E0AE
:1024500014200A490855601CC4B2052CF8DB63201F
:10246000074908706420074908700520064908706C
:1024700010BD00008C0100206F0100206A010020C7
:1024800066010020650100206701002000B50022E0
:1024900000BF05E00C20054921F81200501CC2B213
:1024A000782AF7DB00F0F0FA00BD0000A00200205F
:1024B00000B500BF064800780028FBD100F020F8E6
:1024C00000F0E2FA00BF024800780028FBD100BD0E
:1024D0008C0100200849097861B908490860002189
:1024E000054A117005492C39098841F00101034A58
:1024F0002C3A1180704700008D0100202C0C014007
:102500002DE9F04185B00024002300250026002796
:1025100000BF3B4800780028FBD100236BE039481E
:10252000C05C142807D038480078012836D13548D7
:10253000C05C0A2832D1354850F82300C0F3074068
:10254000334909784843642190FBF1F000F0FF081B
:10255000404601F0F3FC05462C4850F82300C0B279
:102560002B4909784843642190FBF1F000F0FF0803
:10257000404601F0E3FC0646244850F82300C0F32F
:102580000720234909784843642190FBF1F000F0CB
:10259000FF08404601F0D2FC074609E01A480078DF
:1025A00030B91848C05C0A2802D10025002600274F
:1025B000380440EA052030434DF82300002416E09B
:1025C0005DF823000121A140084038B11E201821E8
:1025D00001FB03410F4A22F8110006E00C201821EC
:1025E00001FB03410B4A22F81100601CC4B2182CF5
:1025F000E6DB581CC3B2052B91DB05B0BDE8F081CA
:102600008C0100206A010020690100209003002055
:102610006F010020A00200202DE9F04707460C467C
:1026200015461E4600BF00BFC5EBC500C0EBC51078
:10263000642190FBF1F000F0FF08C4EBC400C0EB94
:10264000C41090FBF1F000F0FF09C6EBC600C0EB30
:10265000C61090FBF1F000F0FF0A5346424649468F
:102660003846FEF71DFABDE8F087000070B5054654
:102670000C4604EB4400074E3044837804EB4400DE
:102680003044427804EB4400315C2846FFF7C4FF35
:1026900070BD0000700100202DE9F04F93B083461B
:1026A00016461F46DDF87080BBF1000F01D1584877
:1026B00000E058460446012012900022134630469E
:1026C000394601F05BFD0BD22D2004F8010B0022EE
:1026D000504B3046394601F08DFD06460F4605E069
:1026E0004D48006810B12B2004F8010BB8F1080F19
:1026F0000BD24A4800EBC80003C832463B46CDE93E
:10270000060101F02FFC06460F46002505E0129851
:1027100000EB8000400012906D1C4545F7D3304619
:10272000394601F0D3FC8146129801F013FDCDE942
:102730000401484601F00EFD32463B46CDE900015A
:1027400001F056FECDE90201DDE9042301F052FD5E
:10275000CDE9060101F0BAFC824600250CE00A2012
:10276000B9FBF0F100FB1190303029466D1C08AA2E
:1027700050540A20B9FBF0F9B9F1000FEFD11DB99F
:10278000302004F8010B08E005E0681E08A9085C89
:1027900004F8010B6D1E002DF7D1B8F1000F2AD0FF
:1027A0002E2004F8010B00250CE00A20BAFBF0F102
:1027B00000FB11A0303029466D1C08AA50540A2095
:1027C000BAFBF0FABAF1000FEFD104E0302228464C
:1027D0006D1C08A90A544545F8D31DB9302004F8EA
:1027E000010B08E005E0681E08A9085C04F8010B6D
:1027F0006D1E002DF7D100202070BBF1000F01D11C
:10280000034800E05846044613B0BDE8F08F0000CE
:10281000EE0100200000F0BF40010020E04500086C
:1028200030B50146012300200DE00C4601EBD475C4
:102830006D10A1EB450201EBD175691002FB03009D
:1028400003EB830463000029EFD130BD10B50446CB
:102850004FF08040808840F008004FF08041888031
:102860001D48006840F080701B4908601B48C06923
:1028700043F2A05108431949C8610846C06920F0D5
:102880004000C8610846C06940F01000C8611448A3
:1028900048620A2C09D10846C06920F00300C861CB
:1028A00010488862182008620BE0142C09D10B48EC
:1028B000C06920F003000949C8610B48886278208C
:1028C00008620648C06940F003000449C8610C2052
:1028D000FEF746FA10BD00001C38024000600240BE
:1028E0003C00004070020020A0020020002000BF39
:1028F00005E000210B4A22F81010411CC8B218282C
:10290000F7DB0121084A11708907098841F00101AC
:102910004FF08042118000BF034909780029FBD1A4
:1029200070470000700200208C01002012480068EF
:1029300040F00200104908601048006840F40010A0
:102940000E490860081D008820F48060091D088079
:10295000081D006840F40010091D0860081D00688B
:1029600040F48010091D08600448406A40F48071FA
:1029700002484162704700001C38024000040240D7
:1029800010B52548006840F0080023490860002081
:10299000224908702248008840F2F23188432049D9
:1029A00008800846008840F00800088047F6FF408D
:1029B0001B49283108800020091D0860184924316E
:1029C000086017480C30008840F201118843144910
:1029D0000C3108801248001D008820F008001049C2
:1029E000091D08801A20FEF7BBF90D480C3000883D
:1029F00040F001000A490C31088009481430008871
:102A000040F00100064914310880081F008820F0BA
:102A10000100091F088010BD203802408D010020F0
:102A2000000C01401748006840F00100154908609B
:102A30000807008840F2F2318843490708800846B9
:102A4000808840F0080088800846808B40F0600055
:102A500088830846008C40F480700884084680898A
:102A600040F480708881002008852720C8620846CD
:102A7000808A40F0010088820846008A20F0010028
:102A800008827047243802400120074908708007F7
:102A9000008840F001004FF08041088000BF0248EC
:102AA00000780028FBD170478C0100200EB5FFF79D
:102AB00083F800210846FFF7A7F8044600BF214627
:102AC0000120FFF7A1F8B0F57A7FF8D392480068AB
:102AD00040F00100904908600020009001900346FA
:102AE0000122032102900A20FDF764FE8B48008B2F
:102AF00040F0080089490883FDF752FFFDF7E4FF25
:102B0000FFF796FA86A0FFF7DBFAFEF723FCFFF744
:102B100071FBFFF783FCFFF7B9FC88A0FFF7D0FA41
:102B20000020FFF771FC00210120FFF79FFD01212C
:102B30000520FFF79BFD02210420FFF797FD0321ED
:102B40000846FFF793FD04210220FFF78FFDFFF7F2
:102B5000AFFC00BF7148008A00F001000028F9D1E5
:102B600000BFFDF70BFF06467C4800684169304610
:102B700088476A48008A00F00400002863D00021DA
:102B80000846FFF741F8054657E074480068744965
:102B90000968884206D071480068C06870490968B1
:102BA000884202D10520FFF7ADFB6C4800686D49F3
:102BB0000968884206D069480068C06869490968A0
:102BC000884202D10420FFF79DFB644800686649F3
:102BD0000968884206D061480068C068624909688F
:102BE000884202D10320FFF78DFB5C4800685F49F3
:102BF0000968884206D059480068C0685B4909687E
:102C0000884202D10220FFF77DFB29460120FEF712
:102C1000FBFF40F2DC5188420FD900231A461946C7
:102C20000120FFF7F9FCFFF743FC51A0FFF748FA3A
:102C30004A480068C068494908603848008A00F07E
:102C400004000028A1D13548008A00F001000028C6
:102C500087D000210846FEF7D7FF044654E03F48DE
:102C600000683F490968884206D03C480068C0684F
:102C70003B490968884202D10520FFF743FB3748EA
:102C8000006838490968884206D034480068C0683E
:102C900034490968884202D10420FFF733FB2F48EA
:102CA000006831490968884206D02C480068C0682D
:102CB0002D490968884202D10320FFF723FB2748EA
:102CC00000682A490968884206D024480068C0681C
:102CD00026490968884202D10220FFF713FB2146EA
:102CE0000120FEF791FF40F6B83188420CD9FDF77C
:102CF00011FDFFF7CBFB24A0FFF7E2F90748808A1C
:102D000020F00800054988820448008A00F001008C
:102D100000289DD0A3E700001C38024000000240BC
:102D20005065726970686572616C7320696E697450
:102D300069616C697A65642E0A00000045787465E3
:102D4000726E616C206465766963657320696E6973
:102D50007469616C697A65642E0A0000BC01002008
:102D6000980100209C010020A0010020A401002067
:102D7000476F696E6720757020746F206C6576658B
:102D80006C20302E0A000000506F776572206F664D
:102D9000662064657465637465642E20537973746A
:102DA000656D206261636B65642075702E205377BA
:102DB00069746368696E67206F66662E0A0000009A
:102DC0001CB5044601210846FFF750FCB2480068D4
:102DD000C068B2490968884202D10520FFF792FA1B
:102DE000AD480068C068AE490968884202D1042035
:102DF000FFF788FAA8480068C068AA4909688842AD
:102E000002D10320FFF77EFAA3480068C068A649F4
:102E10000968884202D10220FFF774FA012C72D0AF
:102E2000022C6FD0042C6BD1FFF742FA0120FDF782
:102E3000F5FB99480068C06898490968884211D133
:102E40009A484078062803D100209849487004E049
:102E500096484078401C9549487094484178052030
:102E6000FFF704FC8C480068C0688D4909688842F7
:102E700012D18E48407A062803D100218B48417236
:102E800005E08A48407A401CC1B2884841728748B0
:102E9000417A0420FFF7EAFB7F480068C068814957
:102EA0000968884212D18148407C062803D100215C
:102EB0007E48417405E07D48407C401CC1B27B489F
:102EC00041747A48417C0320FFF7D0FB72480068C8
:102ED000C06875490968884212D17448407E062846
:102EE00003D100217148417605E07048407E401CC6
:102EF000C1B26E4841766D48417E0220FFF7B6FBB5
:102F0000C8E000E05DE0FFF7D3F90120FDF786FBA4
:102F100003208DF8040060480068C0685F490968B4
:102F200088420CD1614840788DF805000A205F493D
:102F30000090C8790F23022201A9FEF7C7FC56486A
:102F40000068C0685649096888420CD15748407AE1
:102F50008DF805000A2055490090C87B0F230222F6
:102F600001A9FEF7B3FC4C480068C0684D490968E8
:102F700088420CD14D48407C8DF805000A204B4911
:102F80000090C87D0F23022201A9FEF79FFC424852
:102F90000068C0684449096888420CD14348407EB3
:102FA0008DF805000A2041490090C87F0F230222B6
:102FB00001A9FEF78BFC38480068006836490860B4
:102FC00068E0FFF775F90120FDF728FB324800683B
:102FD000C06832490968884210D13448407818B92D
:102FE00006203249487004E030484078401E2F499E
:102FF00048702E4841780520FFF738FB26480068C6
:10300000C06827490968884211D12848407A18B910
:1030100006212648417205E02448407A401EC1B28C
:10302000224841722148417A0420FFF71FFB1A48C9
:103030000068C0681B490968884211D11B48407C60
:1030400018B906211948417405E01848407C401E13
:10305000C1B2164841741548417C0320FFF706FBB6
:103060000D480068C06810490968884211D10F48AE
:10307000407E18B906210D48417605E00B48407E98
:10308000401EC1B2094841760848417E0220FFF740
:10309000EDFA00BF00BF1CBDBC010020980100205C
:1030A0009C010020A0010020A40100203C08002079
:1030B0001CB5044602210120FFF7D8FAAE4800688B
:1030C000C068AE490968884202D10520FFF71AF9A5
:1030D000A9480068C068AA490968884202D104204A
:1030E000FFF710F9A4480068C068A649096888423B
:1030F00002D10320FFF706F99F480068C068A24983
:103100000968884202D10220FFF7FCF8012C6CD03C
:10311000022C7CD0042C67D1FFF7CAF80120FDF700
:103120007DFA95480068C06894490968884210D1C2
:1031300096488078062803D100209449887004E0DE
:1031400092488078401C9149887090498878FFF7B0
:103150005BF989480068C06889490968884211D1CB
:103160008A48807A062803D100218848817205E0C8
:103170008648807A401CC1B2844881728349887A2B
:10318000FFF742F97C480068C0687E4909688842B8
:1031900011D17E48807C062803D100217B488174B0
:1031A00005E07A48807C401CC1B278488174774938
:1031B000887CFFF729F970480068C068724909687F
:1031C000884211D17148807E062803D100216F48C2
:1031D000817605E06D48807E401CC1B26B488176E7
:1031E0006A49887EFFF710F9C4E0FFF761F8012013
:1031F000FDF714FA04208DF804005F480068C068E9
:103200005E49096888420ED16048807800E04CE051
:103210008DF805000F205D490090C8790F23022228
:1032200001A9FEF753FB54480068C0685449096877
:1032300088420CD15548807A8DF805000F205349FB
:103240000090C87B0F23022201A9FEF73FFB4A48EA
:103250000068C0684B49096888420CD14B48807CA3
:103260008DF805000F2049490090C87D0F230222E8
:1032700001A9FEF72BFB40480068C0684249096875
:1032800088420CD14148807E8DF805000F203F49CF
:103290000090C87F0F23022201A9FEF717FB3648D2
:1032A000006800683449086064E0FFF701F8012015
:1032B000FDF7B4F930480068C068304909688842B1
:1032C0000FD13248807818B906203049887004E060
:1032D0002E488078401E2D4988702C498878FFF749
:1032E00093F825480068C06825490968884210D1CC
:1032F0002648807A18B906212448817205E02348BF
:10330000807A401EC1B2214881722049887AFFF735
:103310007BF819480068C0681A490968884210D1CA
:103320001A48807C18B906211848817405E01748AE
:10333000807C401EC1B2154881741449887CFFF717
:1033400063F80D480068C0680F490968884210D1C9
:103350000E48807E18B906210C48817605E00B489E
:10336000807E401EC1B2094881760849887EFFF7F9
:103370004BF800BF00BF1CBDBC010020980100201D
:103380009C010020A0010020A40100203C08002096
:103390001CB5044603210120FFF768F9FEF7FAFE89
:1033A000AE480068C068AE490968884202D105206D
:1033B000FEF7A8FFA9480068C068AA4909688842C2
:1033C00002D10420FEF79EFFA4480068C068A64909
:1033D0000968884202D10320FEF794FF9F480068E5
:1033E000C068A2490968884202D10220FEF78AFF1C
:1033F000012C6CD0022C7CD0042C67D1FEF758FF36
:103400000120FDF70BF995480068C06894490968E8
:10341000884210D19648C078052803D100209449ED
:10342000C87004E09248C078401C9149C870904927
:10343000C878FEF78BFE89480068C068894909682A
:10344000884211D18A48C07A052803D100218848D2
:10345000C17205E08648C07A401CC1B28448C1727E
:103460008349C87AFEF772FE7C480068C0687E49CE
:103470000968884211D17E48C07C052803D100210B
:103480007B48C17405E07A48C07C401CC1B27848D2
:10349000C1747749C87CFEF759FE70480068C0685F
:1034A00072490968884211D17148C07E052803D14C
:1034B00000216F48C17605E06D48C07E401CC1B256
:1034C0006B48C1766A49C87EFEF740FEC4E0FEF74D
:1034D000EFFE0120FDF7A2F805208DF804005F48FB
:1034E0000068C0685E49096888420ED16048C078AB
:1034F00000E04CE08DF805000F205D490090C87990
:103500000F23022201A9FEF7E1F954480068C068C0
:103510005449096888420CD15548C07A8DF8050095
:103520000F2053490090C87B0F23022201A9FEF708
:10353000CDF94A480068C0684B49096888420CD1F7
:103540004B48C07C8DF805000F2049490090C87D8C
:103550000F23022201A9FEF7B9F940480068C068AC
:103560004249096888420CD14148C07E8DF8050067
:103570000F203F490090C87F0F23022201A9FEF7C8
:10358000A5F93648006800683449086064E0FEF731
:103590008FFE0120FDF742F830480068C0683049CE
:1035A000096888420FD13248C07818B905203049DF
:1035B000C87004E02E48C078401E2D49C8702C49C0
:1035C000C878FEF7C3FD25480068C068254909682A
:1035D000884210D12648C07A18B905212448C17202
:1035E00005E02348C07A401EC1B22148C17220497B
:1035F000C87AFEF7ABFD19480068C0681A49096827
:10360000884210D11A48C07C18B905211848C174E5
:1036100005E01748C07C401EC1B21548C17414496A
:10362000C87CFEF793FD0D480068C0680F49096823
:10363000884210D10E48C07E18B905210C48C176C9
:1036400005E00B48C07E401EC1B20948C17608495A
:10365000C87EFEF77BFD00BF00BF1CBDBC01002083
:10366000980100209C010020A0010020A40100205E
:103670003C0800201CB5044604210120FEF7F6FF9B
:10368000FEF788FDAE480068C068AE490968884208
:1036900002D10520FEF736FEA9480068C068AA4995
:1036A0000968884202D10420FEF72CFEA448006875
:1036B000C068A6490968884202D10320FEF722FEAD
:1036C0009F480068C068A2490968884202D1022068
:1036D000FEF718FE012C6CD0022C7CD0042C67D194
:1036E000FEF7E6FD0120FCF799FF95480068C068E9
:1036F00094490968884210D196480079052803D179
:1037000000209449087104E092480079401C9149D6
:10371000087190490879FEF72DFD89480068C06856
:1037200089490968884211D18A48007B052803D15C
:1037300000218848017305E08648007B401CC1B227
:10374000844801738349087BFEF714FD7C480068B8
:10375000C0687E490968884211D17E48007D0528ED
:1037600003D100217B48017505E07A48007D401CAB
:10377000C1B2784801757749087DFEF7FBFC7048B7
:103780000068C06872490968884211D17148007F99
:10379000052803D100216F48017705E06D48007FBF
:1037A000401CC1B26B4801776A49087FFEF7E2FC12
:1037B000C4E0FEF77DFD0120FCF730FF06208DF808
:1037C00004005F480068C0685E49096888420ED1FD
:1037D0006048007900E04CE08DF805000F205D495D
:1037E0000090C8790F23022201A9FEF76FF8544810
:1037F0000068C0685449096888420CD15548007B6C
:103800008DF805000F2053490090C87B0F2302223A
:1038100001A9FEF75BF84A480068C0684B4909688F
:1038200088420CD14B48007D8DF805000F20494996
:103830000090C87D0F23022201A9FEF747F84048F7
:103840000068C0684249096888420CD14148007F3D
:103850008DF805000F203F490090C87F0F230222FA
:1038600001A9FEF733F8364800680068344908605B
:1038700064E0FEF71DFD0120FCF7D0FE3048006833
:10388000C0683049096888420FD13248007918B9B8
:1038900005203049087104E02E480079401E2D496A
:1038A00008712C490879FEF765FC25480068C06856
:1038B00025490968884210D12648007B18B905219E
:1038C0002448017305E02348007B401EC1B2214813
:1038D00001732049087BFEF74DFC19480068C06859
:1038E0001A490968884210D11A48007D18B9052183
:1038F0001848017505E01748007D401EC1B2154803
:1039000001751449087DFEF735FC0D480068C06854
:103910000F490968884210D10E48007F18B9052167
:103920000C48017705E00B48007F401EC1B20948F2
:1039300001770849087FFEF71DFC00BF00BF1CBDD2
:10394000BC010020980100209C010020A001002063
:10395000A40100203C0800201CB5044605210120DC
:10396000FEF784FEFEF716FCAE480068C068AE495C
:103970000968884202D10520FEF7C4FCA948006806
:10398000C068AA490968884202D10420FEF7BAFC3F
:10399000A4480068C068A6490968884202D103208B
:1039A000FEF7B0FC9F480068C068A24909688842D9
:1039B00002D10220FEF7A6FC012C6CD0022C7CD098
:1039C000042C67D1FEF774FC0120FCF727FE954814
:1039D0000068C06894490968884210D196484079C7
:1039E000092803D100209449487104E092484079A5
:1039F000401C9149487190494879FEF799FB8948E4
:103A00000068C06889490968884211D18A48407BAA
:103A1000092803D100218848417305E08648407B8E
:103A2000401CC1B2844841738349487BFEF780FB48
:103A30007C480068C0687E490968884211D17E4888
:103A4000407D092803D100217B48417505E07A4873
:103A5000407D401CC1B2784841757749487DFEF7EA
:103A600067FB70480068C06872490968884211D1D4
:103A70007148407F092803D100216F48417705E054
:103A80006D48407F401CC1B26B4841776A49487F0E
:103A9000FEF74EFBC4E0FEF70BFC0120FCF7BEFD79
:103AA00007208DF804005F480068C0685E49096817
:103AB00088420ED16048407900E04CE08DF8050066
:103AC0000F205D490090C8790F23022201A9FDF75C
:103AD000FDFE54480068C0685449096888420CD10A
:103AE0005548407B8DF805000F2053490090C87B56
:103AF0000F23022201A9FDF7E9FE4A480068C068C9
:103B00004B49096888420CD14B48407D8DF805002F
:103B10000F2049490090C87D0F23022201A9FDF71B
:103B2000D5FE40480068C0684249096888420CD107
:103B30004148407F8DF805000F203F490090C87F25
:103B40000F23022201A9FDF7C1FE36480068006874
:103B50003449086064E0FEF7ABFB0120FCF75EFD32
:103B600030480068C0683049096888420FD132483F
:103B7000407918B909203049487104E02E4840794D
:103B8000401E2D4948712C494879FEF7D1FA254845
:103B90000068C06825490968884210D12648407BE2
:103BA00018B909212448417305E02348407B401E91
:103BB000C1B2214841732049487BFEF7B9FA194840
:103BC0000068C0681A490968884210D11A48407DC7
:103BD00018B909211848417505E01748407D401E75
:103BE000C1B2154841751449487DFEF7A1FA0D4848
:103BF0000068C0680F490968884210D10E48407FAC
:103C000018B909210C48417705E00B48407F401E58
:103C1000C1B2094841770849487FFEF789FA00BFD9
:103C200000BF1CBDBC010020980100209C010020A9
:103C3000A0010020A40100203C08002010B504468B
:103C40000520FEF75FFB012C12D0022C1FD0042CA4
:103C500036D1FEF72DFB0120FCF7E0FC194909687D
:103C6000087CFEF73FFB184800681849086027E009
:103C7000FEF71EFB0120FCF7D1FC14480068FDF79D
:103C800055F81248006880681049086018E0FEF78F
:103C90000FFB0120FCF7C2FC0A490968087CFEF70B
:103CA00021FB0B480078012805DD08480068006802
:103CB0000649086003E0044800680449086000BF42
:103CC00000BF10BD9801002094010020BC0100201D
:103CD0009001002010B504460420FEF713FB012CD0
:103CE00012D0022C1FD0042C36D10120FCF796FCF8
:103CF000FEF7DEFA19490968087CFEF7F3FA18485E
:103D000000681849086027E0FEF7D2FA0120FCF7A6
:103D100085FC14480068FDF709F8124800688068BF
:103D20001049086018E0FEF7C3FA0120FCF776FCA2
:103D30000A490968087CFEF7D5FA0B480078022882
:103D400005DD0848006800680649086003E0074888
:103D500000680449086000BF00BF10BD9C0100203E
:103D600098010020BC010020900100209401002057
:103D700010B504460320FEF7C5FA012C12D0022C20
:103D80001FD0042C36D1FEF793FA0120FCF746FC35
:103D900019490968087CFEF7A5FA1848006818490F
:103DA000086027E0FEF784FA0120FCF737FC14488E
:103DB0000068FCF7BBFF1248006880681049086083
:103DC00018E0FEF775FA0120FCF728FC0D48007892
:103DD000032805DD0A48006800680949086003E017
:103DE000094800680649086003490968087CFEF72D
:103DF00079FA00BF00BF10BDA00100209C01002087
:103E0000BC010020900100209401002010B5044660
:103E10000220FEF777FA012C12D0022C1FD0042CBE
:103E20002DD1FEF745FA0120FCF7F8FB154909688A
:103E3000087CFEF757FA14480068144908601EE031
:103E4000FEF736FA0120FCF7E9FB10480068FCF7A2
:103E50006DFF0E48006880680C4908600FE0FEF7AF
:103E600027FA0120FCF7DAFB06490968087CFEF70F
:103E700039FA0648006800680449086000BF00BFBE
:103E800010BD0000A4010020A0010020BC01002002
:103E900010B50446012C29D0022C2BD0042C3DD186
:103EA000FEF706FA0120FCF7B9FB1D48007801284F
:103EB00006D0022809D003280CD0042814D10EE023
:103EC00018480068184908600EE01848006816494C
:103ED000086009E0164800681349086004E01548C6
:103EE00000681149086000BF00BF17E00120FCF71F
:103EF00095FB13E0FEF7DCF90120FCF78FFB084887
:103F00000078002805DD0848006800680649086058
:103F100003E0094800680449086000BF00BF10BD05
:103F20009001002098010020BC0100209C0100208D
:103F3000A0010020A401002094010020010900F04C
:103F40000F0241EA021000F0CC01891000F03302A8
:103F500041EA820000F0AA01491000F0550241EA4E
:103F60004200704710B591EA030F48BF83F0004349
:103F700000F15282841A71EB030C05D2121943EB43
:103F80000C03001B61EB0C01DFF824E14FEA115434
:103F9000A4EB135C1EEA430F18BF9EEA445F73D084
:103FA00023EA0E03DCF1200E21EA045143F48013CE
:103FB00032D322FA0CFE10EB0E0023FA0CFE41EB7A
:103FC0000E01CCF1200E03FA0EFE10EB0E0051F1A3
:103FD0000001B1F5801FCCF1200E32D201EB04516B
:103FE00012FA0EF2BDE8104058BF7047401C38BFAF
:103FF0005FEA420218BF7047002814BF20F001009A
:1040000041F100014FEA410313F5001F38BF70472B
:10401000A1F1C04100F0E6B9012A43EB0302ACF183
:10402000200CDCF11F0E32BF4FF0000E23FA0CF310
:1040300010EB030041EB0451B4EB115FD0D0A1EBC6
:10404000045101F5801149085FEA300001EB045189
:104050000ED350F1000038BF12FA0EFE08D1BDE8B1
:104060001040C9E7401C38BF5FEA4202CAD1C3E72B
:10407000BDE810404FEA410313F5001F38BF7047F9
:10408000A1F1C04100F0AEB99EEA445F08D011EA48
:104090005E0FBDE8104004BF01F0004100207047F2
:1040A000BDE8104070B500F04FF900BF64FBBE3EA4
:1040B0000000E0FF491058BFC1F140415B1058BFFC
:1040C000C3F140438B42EFF3008070474FEA115336
:1040D000A3F58063D3F11E03A8BFD3F1200C08DB46
:1040E0004FF0004242EAC12252EA505232FA03F043
:1040F000704709420BD4102BC4BF0020704703F552
:10410000787CBCF1FF3F05D04FF0FF3070474FF097
:104110000000704770B500F017F900BF4992248085
:1041200000207047F0E710F0004248BF4042B0FA6C
:1041300080F310FA03F10AD0C3F11D0303F5806385
:104140004FEA415002EB035202EBD12170474FF08E
:1041500000007047B0FA80F310FA03F10AD0C3F1FF
:104160001D0303F580634FEA41504FEA035202EB0F
:10417000D12170474FF000007047000051EA030C56
:1041800017D41CF5801F58BFBCF5801F00F10680B6
:10419000994218BF704708BF9042704707D711F582
:1041A000801F58BF13F5801F19D499427047894268
:1041B00070471CF5801F08D5BCF5801FF7D58B42D2
:1041C00018BF704708BF824270474FF4001C1CEBB9
:1041D000410F38BF1CEB430F01D28B42704770B5C3
:1041E00000F0B2F8922449004FF000514FF0805394
:1041F000FFF760BFDFF848C170B51CEA111E1EBF93
:104200001CEA13159EEA0C0F95EA0C0F00F06F8064
:1042100081EA030423EA4C134EEAD47E21EA4C11CE
:1042200041F4801143F48013AE44A1FB024CA0FB87
:104230000365AEF17F7E361955EB0C05A1FB034CEF
:104240004CF10003A0FB021C16EB0C06654153F178
:104250000003094218BF46F0010613F4007F0BD19A
:104260004FEA03314FEA0530340341EA155140EA81
:1042700016506FF003020AE04FEAC3214FEAC5204F
:10428000F40241EA555140EA56506FF0020202EB47
:104290002E4201EB025585EACE710AD05FEA440C4A
:1042A00018BF24F0004450F1000041F1000120EA61
:1042B000D47040F2FE7C624500D270BDA84214BFAB
:1042C0004FF080444FF04044002E08BF0024BEF160
:1042D000806FA8BFA1F1C041BDE8704080F282802C
:1042E0004FF0000001F1C04101F0004170479EEA2B
:1042F0000C0F0CEA131518BF95EA0C0F06D04FF0FF
:10430000000081EA030E0EF0004170BD00F01CF8C1
:104310008900013E00F007B800F009B84FEA430CED
:104320005FEA5C5C08D081EA030100F05BB84FEA09
:10433000410C5FEA5C5CF6D14FF000000149704728
:104340000000FF070000F87F0EF1020E2EF0030EB2
:104350005EF8046B364205D4012A43EB030515F5DC
:10436000001F12D8012841EB010C1CF5001F0CD8CE
:104370000ED14FEAD17C15F5001F0CEB4C0C0CF163
:10438000020C08BF4CEBD37C04E04FF0080C01E0BA
:104390004FEAD37C0CEB4C0526FA05F606F007062F
:1043A000B6F1040C06D20EEB860CBDE870404CF062
:1043B000010C6047DFE80CF0090B02024FF00041EE
:1043C0004FF00000A1F5002170BD194610460128EC
:1043D00051EB010418BFD4F5001484BF002001F094
:1043E000004170BD0808A0F500114FEA3101704787
:1043F00091EA030F10B581F000413FF5BBAD83F0AA
:10440000004300F009B8000010B591EA030F48BF5F
:1044100083F000433FF5AEAD841A71EB030C07D275
:1044200012198CF0004C43EB0C03001B61EB0C01E8
:10443000DFF8A4E14FEA1154A4EB135C1EEA430F2A
:1044400018BF9EEA445F00F0B08023EA6E03524238
:1044500021EA0451C3EB6E0338BF5B1EDCF1200E72
:1044600025D322FA0CFE10EB0E0043FA0CFE41EBB2
:104470000E01CCF1200E03FA0EFE10EB0E0051F1EE
:104480000001CCF1200E29D412FA0EF201EB0451F6
:10449000BDE8104058BF7047401C1CBFB2F1004F30
:1044A000704700280CBF491C20F00100704712EB38
:1044B000020E43EB030218BF4FF0010E4EEA420218
:1044C000ACF1200CDCF11E0E54D943FA0CFE10EBBB
:1044D0000E0051F1FF31CCF11E0ED5D50EF1010EBB
:1044E00012FA0EFE404141EB010101EB445C5FEA30
:1044F0005C5C10D910EBDE7001EB045138BFBEF1EB
:10450000004FBDE8104018BF704700280CBF491C81
:1045100020F00100704730D24FEAD42C11F5001181
:1045200024F400641BD0B1FA81F20B3AA41AA41E41
:10453000D2F12003914030FA03F31943904001EB8C
:10454000CC71002C01EB0451BDE81040A8BF7047AE
:1045500001F1C0414FF0000001F000417047B0FA96
:1045600080F310FA03F100D110BDE41A173C48059E
:10457000C90AE4E701EB045110BD491001EB0451F5
:10458000BDE810404FEA300002E04FF000017047F4
:104590004A0008BF0042F8D0B2F5001F28BF70479C
:1045A00001F000414FF0000070479EEA445F07D0E1
:1045B00011EA5E0FBDE8104004BF002100207047E3
:1045C000BDE8104070B5FFF7BFFE00BF40DFF63E0C
:1045D00083F00041104670470000E0FF000000003B
:1045E000000000000000E03F9A9999999999A93F2D
:1045F0007B14AE47E17A743FFCA9F1D24D62403F93
:104600002D431CEBE2360A3FF168E388B5F8D43E4F
:104610008DEDB5A0F7C6A03E48AFBC9AF2D76A3E72
:1046200003006400320032000A000A000A000A0097
:104630000A000300000000005846000800000020A7
:10464000C80100003001000820470008C801002010
:10465000F80C00008C01000811800D48E8010304EB
:1046600006080C101820301B010213A407080910BB
:104670000D404A454F4A544F59545E5963163132E2
:104680003435FF126412C818122C019001F401583D
:1046900002BC0220038403E80364121FF401BC027D
:1046A000FFFF311363FF12FA1CE803FA066902C91F
:1046B0000E49101AF4320D10E204F40120091A2EEA
:1046C00014FFFF5412541A59042179081C596368C5
:1046D0000909121713FF3E89021AE8AA127C29025F
:1046E0000D10E803F4010AA92C14FFFF6329026FDF
:1046F0005440454A4F31054B454F16021DFF1320CC
:10470000462A0804C17A64041D6464643705290AD2
:104710001F050F1923374B17120102370400000041
:04000005080001D915
:00000001FF
